{"contracts/Voting.sol":{"Voting":{"abi":[{"inputs":[{"internalType":"string","name":"_title","type":"string"},{"internalType":"string[]","name":"_candidateNames","type":"string[]"},{"internalType":"uint256","name":"_durationInMinutes","type":"uint256"}],"name":"createEvent","outputs":[],"stateMutability":"nonpayable","type":"function"},{"inputs":[],"name":"eventCount","outputs":[{"internalType":"uint256","name":"","type":"uint256"}],"stateMutability":"view","type":"function"},{"inputs":[{"internalType":"uint256","name":"","type":"uint256"}],"name":"events","outputs":[{"internalType":"string","name":"title","type":"string"},{"internalType":"uint256","name":"endTime","type":"uint256"},{"internalType":"bool","name":"active","type":"bool"}],"stateMutability":"view","type":"function"},{"inputs":[{"internalType":"uint256","name":"_eventId","type":"uint256"}],"name":"getEvent","outputs":[{"internalType":"string","name":"title","type":"string"},{"components":[{"internalType":"string","name":"name","type":"string"},{"internalType":"uint256","name":"voteCount","type":"uint256"}],"internalType":"struct Voting.Candidate[]","name":"candidates","type":"tuple[]"},{"internalType":"uint256","name":"endTime","type":"uint256"},{"internalType":"bool","name":"active","type":"bool"}],"stateMutability":"view","type":"function"},{"inputs":[{"internalType":"address","name":"","type":"address"},{"internalType":"uint256","name":"","type":"uint256"}],"name":"hasVoted","outputs":[{"internalType":"bool","name":"","type":"bool"}],"stateMutability":"view","type":"function"},{"inputs":[{"internalType":"uint256","name":"_eventId","type":"uint256"},{"internalType":"uint256","name":"_candidateIndex","type":"uint256"}],"name":"vote","outputs":[],"stateMutability":"nonpayable","type":"function"}],"evm":{"bytecode":{"linkReferences":{},"object":"6080604052348015600f57600080fd5b5061155e8061001f6000396000f3fe608060405234801561001057600080fd5b50600436106100625760003560e01c80630b7914301461006757806342545825146100995780636d1884e0146100c957806371be2e4a146100fc578063b384abef1461011a578063f36ccc5c14610136575b600080fd5b610081600480360381019061007c9190610888565b610152565b6040516100909392919061096f565b60405180910390f35b6100b360048036038101906100ae9190610a0b565b610211565b6040516100c09190610a4b565b60405180910390f35b6100e360048036038101906100de9190610888565b610240565b6040516100f39493929190610bbe565b60405180910390f35b61010461045d565b6040516101119190610c11565b60405180910390f35b610134600480360381019061012f9190610c2c565b610463565b005b610150600480360381019061014b9190610e87565b610720565b005b600060205280600052604060002060009150905080600001805461017590610f41565b80601f01602080910402602001604051908101604052809291908181526020018280546101a190610f41565b80156101ee5780601f106101c3576101008083540402835291602001916101ee565b820191906000526020600020905b8154815290600101906020018083116101d157829003601f168201915b5050505050908060020154908060030160009054906101000a900460ff16905083565b60026020528160005260406000206020528060005260406000206000915091509054906101000a900460ff1681565b60608060008060008511801561025857506001548511155b610297576040517f08c379a000000000000000000000000000000000000000000000000000000000815260040161028e90610fbe565b60405180910390fd5b60008060008781526020019081526020016000209050806000018160010182600201548360030160009054906101000a900460ff168380546102d890610f41565b80601f016020809104026020016040519081016040528092919081815260200182805461030490610f41565b80156103515780601f1061032657610100808354040283529160200191610351565b820191906000526020600020905b81548152906001019060200180831161033457829003601f168201915b5050505050935082805480602002602001604051908101604052809291908181526020016000905b8282101561044757838290600052602060002090600202016040518060400160405290816000820180546103ac90610f41565b80601f01602080910402602001604051908101604052809291908181526020018280546103d890610f41565b80156104255780601f106103fa57610100808354040283529160200191610425565b820191906000526020600020905b81548152906001019060200180831161040857829003601f168201915b5050505050815260200160018201548152505081526020019060010190610379565b5050505092509450945094509450509193509193565b60015481565b60008211801561047557506001548211155b6104b4576040517f08c379a00000000000000000000000000000000000000000000000000000000081526004016104ab90610fbe565b60405180910390fd5b600260003373ffffffffffffffffffffffffffffffffffffffff1673ffffffffffffffffffffffffffffffffffffffff168152602001908152602001600020600083815260200190815260200160002060009054906101000a900460ff1615610552576040517f08c379a00000000000000000000000000000000000000000000000000000000081526004016105499061102a565b60405180910390fd5b60008083815260200190815260200160002060030160009054906101000a900460ff166105b4576040517f08c379a00000000000000000000000000000000000000000000000000000000081526004016105ab90611096565b60405180910390fd5b60008083815260200190815260200160002060020154421061060b576040517f08c379a000000000000000000000000000000000000000000000000000000000815260040161060290611102565b60405180910390fd5b600080838152602001908152602001600020600101805490508110610665576040517f08c379a000000000000000000000000000000000000000000000000000000000815260040161065c9061116e565b60405180910390fd5b600080838152602001908152602001600020600101818154811061068c5761068b61118e565b5b906000526020600020906002020160010160008154809291906106ae906111ec565b91905055506001600260003373ffffffffffffffffffffffffffffffffffffffff1673ffffffffffffffffffffffffffffffffffffffff168152602001908152602001600020600084815260200190815260200160002060006101000a81548160ff0219169083151502179055505050565b60016000815480929190610733906111ec565b91905055506000806000600154815260200190815260200160002090508381600001908161076191906113e0565b50603c8261076f91906114b2565b4261077a91906114f4565b816002018190555060018160030160006101000a81548160ff02191690831515021790555060005b8351811015610837578160010160405180604001604052808684815181106107cd576107cc61118e565b5b6020026020010151815260200160008152509080600181540180825580915050600190039060005260206000209060020201600090919091909150600082015181600001908161081d91906113e0565b5060208201518160010155505080806001019150506107a2565b5050505050565b6000604051905090565b600080fd5b600080fd5b6000819050919050565b61086581610852565b811461087057600080fd5b50565b6000813590506108828161085c565b92915050565b60006020828403121561089e5761089d610848565b5b60006108ac84828501610873565b91505092915050565b600081519050919050565b600082825260208201905092915050565b60005b838110156108ef5780820151818401526020810190506108d4565b60008484015250505050565b6000601f19601f8301169050919050565b6000610917826108b5565b61092181856108c0565b93506109318185602086016108d1565b61093a816108fb565b840191505092915050565b61094e81610852565b82525050565b60008115159050919050565b61096981610954565b82525050565b60006060820190508181036000830152610989818661090c565b90506109986020830185610945565b6109a56040830184610960565b949350505050565b600073ffffffffffffffffffffffffffffffffffffffff82169050919050565b60006109d8826109ad565b9050919050565b6109e8816109cd565b81146109f357600080fd5b50565b600081359050610a05816109df565b92915050565b60008060408385031215610a2257610a21610848565b5b6000610a30858286016109f6565b9250506020610a4185828601610873565b9150509250929050565b6000602082019050610a606000830184610960565b92915050565b600081519050919050565b600082825260208201905092915050565b6000819050602082019050919050565b600082825260208201905092915050565b6000610aae826108b5565b610ab88185610a92565b9350610ac88185602086016108d1565b610ad1816108fb565b840191505092915050565b610ae581610852565b82525050565b60006040830160008301518482036000860152610b088282610aa3565b9150506020830151610b1d6020860182610adc565b508091505092915050565b6000610b348383610aeb565b905092915050565b6000602082019050919050565b6000610b5482610a66565b610b5e8185610a71565b935083602082028501610b7085610a82565b8060005b85811015610bac5784840389528151610b8d8582610b28565b9450610b9883610b3c565b925060208a01995050600181019050610b74565b50829750879550505050505092915050565b60006080820190508181036000830152610bd8818761090c565b90508181036020830152610bec8186610b49565b9050610bfb6040830185610945565b610c086060830184610960565b95945050505050565b6000602082019050610c266000830184610945565b92915050565b60008060408385031215610c4357610c42610848565b5b6000610c5185828601610873565b9250506020610c6285828601610873565b9150509250929050565b600080fd5b600080fd5b7f4e487b7100000000000000000000000000000000000000000000000000000000600052604160045260246000fd5b610cae826108fb565b810181811067ffffffffffffffff82111715610ccd57610ccc610c76565b5b80604052505050565b6000610ce061083e565b9050610cec8282610ca5565b919050565b600067ffffffffffffffff821115610d0c57610d0b610c76565b5b610d15826108fb565b9050602081019050919050565b82818337600083830152505050565b6000610d44610d3f84610cf1565b610cd6565b905082815260208101848484011115610d6057610d5f610c71565b5b610d6b848285610d22565b509392505050565b600082601f830112610d8857610d87610c6c565b5b8135610d98848260208601610d31565b91505092915050565b600067ffffffffffffffff821115610dbc57610dbb610c76565b5b602082029050602081019050919050565b600080fd5b6000610de5610de084610da1565b610cd6565b90508083825260208201905060208402830185811115610e0857610e07610dcd565b5b835b81811015610e4f57803567ffffffffffffffff811115610e2d57610e2c610c6c565b5b808601610e3a8982610d73565b85526020850194505050602081019050610e0a565b5050509392505050565b600082601f830112610e6e57610e6d610c6c565b5b8135610e7e848260208601610dd2565b91505092915050565b600080600060608486031215610ea057610e9f610848565b5b600084013567ffffffffffffffff811115610ebe57610ebd61084d565b5b610eca86828701610d73565b935050602084013567ffffffffffffffff811115610eeb57610eea61084d565b5b610ef786828701610e59565b9250506040610f0886828701610873565b9150509250925092565b7f4e487b7100000000000000000000000000000000000000000000000000000000600052602260045260246000fd5b60006002820490506001821680610f5957607f821691505b602082108103610f6c57610f6b610f12565b5b50919050565b7f496e76616c6964206576656e7420494400000000000000000000000000000000600082015250565b6000610fa86010836108c0565b9150610fb382610f72565b602082019050919050565b60006020820190508181036000830152610fd781610f9b565b9050919050565b7f416c726561647920766f74656400000000000000000000000000000000000000600082015250565b6000611014600d836108c0565b915061101f82610fde565b602082019050919050565b6000602082019050818103600083015261104381611007565b9050919050565b7f4576656e74206973206e6f742061637469766500000000000000000000000000600082015250565b60006110806013836108c0565b915061108b8261104a565b602082019050919050565b600060208201905081810360008301526110af81611073565b9050919050565b7f4576656e742068617320656e6465640000000000000000000000000000000000600082015250565b60006110ec600f836108c0565b91506110f7826110b6565b602082019050919050565b6000602082019050818103600083015261111b816110df565b9050919050565b7f496e76616c69642063616e646964617465000000000000000000000000000000600082015250565b60006111586011836108c0565b915061116382611122565b602082019050919050565b600060208201905081810360008301526111878161114b565b9050919050565b7f4e487b7100000000000000000000000000000000000000000000000000000000600052603260045260246000fd5b7f4e487b7100000000000000000000000000000000000000000000000000000000600052601160045260246000fd5b60006111f782610852565b91507fffffffffffffffffffffffffffffffffffffffffffffffffffffffffffffffff8203611229576112286111bd565b5b600182019050919050565b60008190508160005260206000209050919050565b60006020601f8301049050919050565b600082821b905092915050565b6000600883026112967fffffffffffffffffffffffffffffffffffffffffffffffffffffffffffffffff82611259565b6112a08683611259565b95508019841693508086168417925050509392505050565b6000819050919050565b60006112dd6112d86112d384610852565b6112b8565b610852565b9050919050565b6000819050919050565b6112f7836112c2565b61130b611303826112e4565b848454611266565b825550505050565b600090565b611320611313565b61132b8184846112ee565b505050565b5b8181101561134f57611344600082611318565b600181019050611331565b5050565b601f8211156113945761136581611234565b61136e84611249565b8101602085101561137d578190505b61139161138985611249565b830182611330565b50505b505050565b600082821c905092915050565b60006113b760001984600802611399565b1980831691505092915050565b60006113d083836113a6565b9150826002028217905092915050565b6113e9826108b5565b67ffffffffffffffff81111561140257611401610c76565b5b61140c8254610f41565b611417828285611353565b600060209050601f83116001811461144a5760008415611438578287015190505b61144285826113c4565b8655506114aa565b601f19841661145886611234565b60005b828110156114805784890151825560018201915060208501945060208101905061145b565b8683101561149d5784890151611499601f8916826113a6565b8355505b6001600288020188555050505b505050505050565b60006114bd82610852565b91506114c883610852565b92508282026114d681610852565b915082820484148315176114ed576114ec6111bd565b5b5092915050565b60006114ff82610852565b915061150a83610852565b9250828201905080821115611522576115216111bd565b5b9291505056fea2646970667358221220827c39f222db0fc0d2464fdf19bbb110b6e608272980d7cb89250f74b9f3d51464736f6c634300081c0033","opcodes":"PUSH1 0x80 PUSH1 0x40 MSTORE CALLVALUE DUP1 ISZERO PUSH1 0xF JUMPI PUSH1 0x0 DUP1 REVERT JUMPDEST POP PUSH2 0x155E DUP1 PUSH2 0x1F PUSH1 0x0 CODECOPY PUSH1 0x0 RETURN INVALID PUSH1 0x80 PUSH1 0x40 MSTORE CALLVALUE DUP1 ISZERO PUSH2 0x10 JUMPI PUSH1 0x0 DUP1 REVERT JUMPDEST POP PUSH1 0x4 CALLDATASIZE LT PUSH2 0x62 JUMPI PUSH1 0x0 CALLDATALOAD PUSH1 0xE0 SHR DUP1 PUSH4 0xB791430 EQ PUSH2 0x67 JUMPI DUP1 PUSH4 0x42545825 EQ PUSH2 0x99 JUMPI DUP1 PUSH4 0x6D1884E0 EQ PUSH2 0xC9 JUMPI DUP1 PUSH4 0x71BE2E4A EQ PUSH2 0xFC JUMPI DUP1 PUSH4 0xB384ABEF EQ PUSH2 0x11A JUMPI DUP1 PUSH4 0xF36CCC5C EQ PUSH2 0x136 JUMPI JUMPDEST PUSH1 0x0 DUP1 REVERT JUMPDEST PUSH2 0x81 PUSH1 0x4 DUP1 CALLDATASIZE SUB DUP2 ADD SWAP1 PUSH2 0x7C SWAP2 SWAP1 PUSH2 0x888 JUMP JUMPDEST PUSH2 0x152 JUMP JUMPDEST PUSH1 0x40 MLOAD PUSH2 0x90 SWAP4 SWAP3 SWAP2 SWAP1 PUSH2 0x96F JUMP JUMPDEST PUSH1 0x40 MLOAD DUP1 SWAP2 SUB SWAP1 RETURN JUMPDEST PUSH2 0xB3 PUSH1 0x4 DUP1 CALLDATASIZE SUB DUP2 ADD SWAP1 PUSH2 0xAE SWAP2 SWAP1 PUSH2 0xA0B JUMP JUMPDEST PUSH2 0x211 JUMP JUMPDEST PUSH1 0x40 MLOAD PUSH2 0xC0 SWAP2 SWAP1 PUSH2 0xA4B JUMP JUMPDEST PUSH1 0x40 MLOAD DUP1 SWAP2 SUB SWAP1 RETURN JUMPDEST PUSH2 0xE3 PUSH1 0x4 DUP1 CALLDATASIZE SUB DUP2 ADD SWAP1 PUSH2 0xDE SWAP2 SWAP1 PUSH2 0x888 JUMP JUMPDEST PUSH2 0x240 JUMP JUMPDEST PUSH1 0x40 MLOAD PUSH2 0xF3 SWAP5 SWAP4 SWAP3 SWAP2 SWAP1 PUSH2 0xBBE JUMP JUMPDEST PUSH1 0x40 MLOAD DUP1 SWAP2 SUB SWAP1 RETURN JUMPDEST PUSH2 0x104 PUSH2 0x45D JUMP JUMPDEST PUSH1 0x40 MLOAD PUSH2 0x111 SWAP2 SWAP1 PUSH2 0xC11 JUMP JUMPDEST PUSH1 0x40 MLOAD DUP1 SWAP2 SUB SWAP1 RETURN JUMPDEST PUSH2 0x134 PUSH1 0x4 DUP1 CALLDATASIZE SUB DUP2 ADD SWAP1 PUSH2 0x12F SWAP2 SWAP1 PUSH2 0xC2C JUMP JUMPDEST PUSH2 0x463 JUMP JUMPDEST STOP JUMPDEST PUSH2 0x150 PUSH1 0x4 DUP1 CALLDATASIZE SUB DUP2 ADD SWAP1 PUSH2 0x14B SWAP2 SWAP1 PUSH2 0xE87 JUMP JUMPDEST PUSH2 0x720 JUMP JUMPDEST STOP JUMPDEST PUSH1 0x0 PUSH1 0x20 MSTORE DUP1 PUSH1 0x0 MSTORE PUSH1 0x40 PUSH1 0x0 KECCAK256 PUSH1 0x0 SWAP2 POP SWAP1 POP DUP1 PUSH1 0x0 ADD DUP1 SLOAD PUSH2 0x175 SWAP1 PUSH2 0xF41 JUMP JUMPDEST DUP1 PUSH1 0x1F ADD PUSH1 0x20 DUP1 SWAP2 DIV MUL PUSH1 0x20 ADD PUSH1 0x40 MLOAD SWAP1 DUP2 ADD PUSH1 0x40 MSTORE DUP1 SWAP3 SWAP2 SWAP1 DUP2 DUP2 MSTORE PUSH1 0x20 ADD DUP3 DUP1 SLOAD PUSH2 0x1A1 SWAP1 PUSH2 0xF41 JUMP JUMPDEST DUP1 ISZERO PUSH2 0x1EE JUMPI DUP1 PUSH1 0x1F LT PUSH2 0x1C3 JUMPI PUSH2 0x100 DUP1 DUP4 SLOAD DIV MUL DUP4 MSTORE SWAP2 PUSH1 0x20 ADD SWAP2 PUSH2 0x1EE JUMP JUMPDEST DUP3 ADD SWAP2 SWAP1 PUSH1 0x0 MSTORE PUSH1 0x20 PUSH1 0x0 KECCAK256 SWAP1 JUMPDEST DUP2 SLOAD DUP2 MSTORE SWAP1 PUSH1 0x1 ADD SWAP1 PUSH1 0x20 ADD DUP1 DUP4 GT PUSH2 0x1D1 JUMPI DUP3 SWAP1 SUB PUSH1 0x1F AND DUP3 ADD SWAP2 JUMPDEST POP POP POP POP POP SWAP1 DUP1 PUSH1 0x2 ADD SLOAD SWAP1 DUP1 PUSH1 0x3 ADD PUSH1 0x0 SWAP1 SLOAD SWAP1 PUSH2 0x100 EXP SWAP1 DIV PUSH1 0xFF AND SWAP1 POP DUP4 JUMP JUMPDEST PUSH1 0x2 PUSH1 0x20 MSTORE DUP2 PUSH1 0x0 MSTORE PUSH1 0x40 PUSH1 0x0 KECCAK256 PUSH1 0x20 MSTORE DUP1 PUSH1 0x0 MSTORE PUSH1 0x40 PUSH1 0x0 KECCAK256 PUSH1 0x0 SWAP2 POP SWAP2 POP SWAP1 SLOAD SWAP1 PUSH2 0x100 EXP SWAP1 DIV PUSH1 0xFF AND DUP2 JUMP JUMPDEST PUSH1 0x60 DUP1 PUSH1 0x0 DUP1 PUSH1 0x0 DUP6 GT DUP1 ISZERO PUSH2 0x258 JUMPI POP PUSH1 0x1 SLOAD DUP6 GT ISZERO JUMPDEST PUSH2 0x297 JUMPI PUSH1 0x40 MLOAD PUSH32 0x8C379A000000000000000000000000000000000000000000000000000000000 DUP2 MSTORE PUSH1 0x4 ADD PUSH2 0x28E SWAP1 PUSH2 0xFBE JUMP JUMPDEST PUSH1 0x40 MLOAD DUP1 SWAP2 SUB SWAP1 REVERT JUMPDEST PUSH1 0x0 DUP1 PUSH1 0x0 DUP8 DUP2 MSTORE PUSH1 0x20 ADD SWAP1 DUP2 MSTORE PUSH1 0x20 ADD PUSH1 0x0 KECCAK256 SWAP1 POP DUP1 PUSH1 0x0 ADD DUP2 PUSH1 0x1 ADD DUP3 PUSH1 0x2 ADD SLOAD DUP4 PUSH1 0x3 ADD PUSH1 0x0 SWAP1 SLOAD SWAP1 PUSH2 0x100 EXP SWAP1 DIV PUSH1 0xFF AND DUP4 DUP1 SLOAD PUSH2 0x2D8 SWAP1 PUSH2 0xF41 JUMP JUMPDEST DUP1 PUSH1 0x1F ADD PUSH1 0x20 DUP1 SWAP2 DIV MUL PUSH1 0x20 ADD PUSH1 0x40 MLOAD SWAP1 DUP2 ADD PUSH1 0x40 MSTORE DUP1 SWAP3 SWAP2 SWAP1 DUP2 DUP2 MSTORE PUSH1 0x20 ADD DUP3 DUP1 SLOAD PUSH2 0x304 SWAP1 PUSH2 0xF41 JUMP JUMPDEST DUP1 ISZERO PUSH2 0x351 JUMPI DUP1 PUSH1 0x1F LT PUSH2 0x326 JUMPI PUSH2 0x100 DUP1 DUP4 SLOAD DIV MUL DUP4 MSTORE SWAP2 PUSH1 0x20 ADD SWAP2 PUSH2 0x351 JUMP JUMPDEST DUP3 ADD SWAP2 SWAP1 PUSH1 0x0 MSTORE PUSH1 0x20 PUSH1 0x0 KECCAK256 SWAP1 JUMPDEST DUP2 SLOAD DUP2 MSTORE SWAP1 PUSH1 0x1 ADD SWAP1 PUSH1 0x20 ADD DUP1 DUP4 GT PUSH2 0x334 JUMPI DUP3 SWAP1 SUB PUSH1 0x1F AND DUP3 ADD SWAP2 JUMPDEST POP POP POP POP POP SWAP4 POP DUP3 DUP1 SLOAD DUP1 PUSH1 0x20 MUL PUSH1 0x20 ADD PUSH1 0x40 MLOAD SWAP1 DUP2 ADD PUSH1 0x40 MSTORE DUP1 SWAP3 SWAP2 SWAP1 DUP2 DUP2 MSTORE PUSH1 0x20 ADD PUSH1 0x0 SWAP1 JUMPDEST DUP3 DUP3 LT ISZERO PUSH2 0x447 JUMPI DUP4 DUP3 SWAP1 PUSH1 0x0 MSTORE PUSH1 0x20 PUSH1 0x0 KECCAK256 SWAP1 PUSH1 0x2 MUL ADD PUSH1 0x40 MLOAD DUP1 PUSH1 0x40 ADD PUSH1 0x40 MSTORE SWAP1 DUP2 PUSH1 0x0 DUP3 ADD DUP1 SLOAD PUSH2 0x3AC SWAP1 PUSH2 0xF41 JUMP JUMPDEST DUP1 PUSH1 0x1F ADD PUSH1 0x20 DUP1 SWAP2 DIV MUL PUSH1 0x20 ADD PUSH1 0x40 MLOAD SWAP1 DUP2 ADD PUSH1 0x40 MSTORE DUP1 SWAP3 SWAP2 SWAP1 DUP2 DUP2 MSTORE PUSH1 0x20 ADD DUP3 DUP1 SLOAD PUSH2 0x3D8 SWAP1 PUSH2 0xF41 JUMP JUMPDEST DUP1 ISZERO PUSH2 0x425 JUMPI DUP1 PUSH1 0x1F LT PUSH2 0x3FA JUMPI PUSH2 0x100 DUP1 DUP4 SLOAD DIV MUL DUP4 MSTORE SWAP2 PUSH1 0x20 ADD SWAP2 PUSH2 0x425 JUMP JUMPDEST DUP3 ADD SWAP2 SWAP1 PUSH1 0x0 MSTORE PUSH1 0x20 PUSH1 0x0 KECCAK256 SWAP1 JUMPDEST DUP2 SLOAD DUP2 MSTORE SWAP1 PUSH1 0x1 ADD SWAP1 PUSH1 0x20 ADD DUP1 DUP4 GT PUSH2 0x408 JUMPI DUP3 SWAP1 SUB PUSH1 0x1F AND DUP3 ADD SWAP2 JUMPDEST POP POP POP POP POP DUP2 MSTORE PUSH1 0x20 ADD PUSH1 0x1 DUP3 ADD SLOAD DUP2 MSTORE POP POP DUP2 MSTORE PUSH1 0x20 ADD SWAP1 PUSH1 0x1 ADD SWAP1 PUSH2 0x379 JUMP JUMPDEST POP POP POP POP SWAP3 POP SWAP5 POP SWAP5 POP SWAP5 POP SWAP5 POP POP SWAP2 SWAP4 POP SWAP2 SWAP4 JUMP JUMPDEST PUSH1 0x1 SLOAD DUP2 JUMP JUMPDEST PUSH1 0x0 DUP3 GT DUP1 ISZERO PUSH2 0x475 JUMPI POP PUSH1 0x1 SLOAD DUP3 GT ISZERO JUMPDEST PUSH2 0x4B4 JUMPI PUSH1 0x40 MLOAD PUSH32 0x8C379A000000000000000000000000000000000000000000000000000000000 DUP2 MSTORE PUSH1 0x4 ADD PUSH2 0x4AB SWAP1 PUSH2 0xFBE JUMP JUMPDEST PUSH1 0x40 MLOAD DUP1 SWAP2 SUB SWAP1 REVERT JUMPDEST PUSH1 0x2 PUSH1 0x0 CALLER PUSH20 0xFFFFFFFFFFFFFFFFFFFFFFFFFFFFFFFFFFFFFFFF AND PUSH20 0xFFFFFFFFFFFFFFFFFFFFFFFFFFFFFFFFFFFFFFFF AND DUP2 MSTORE PUSH1 0x20 ADD SWAP1 DUP2 MSTORE PUSH1 0x20 ADD PUSH1 0x0 KECCAK256 PUSH1 0x0 DUP4 DUP2 MSTORE PUSH1 0x20 ADD SWAP1 DUP2 MSTORE PUSH1 0x20 ADD PUSH1 0x0 KECCAK256 PUSH1 0x0 SWAP1 SLOAD SWAP1 PUSH2 0x100 EXP SWAP1 DIV PUSH1 0xFF AND ISZERO PUSH2 0x552 JUMPI PUSH1 0x40 MLOAD PUSH32 0x8C379A000000000000000000000000000000000000000000000000000000000 DUP2 MSTORE PUSH1 0x4 ADD PUSH2 0x549 SWAP1 PUSH2 0x102A JUMP JUMPDEST PUSH1 0x40 MLOAD DUP1 SWAP2 SUB SWAP1 REVERT JUMPDEST PUSH1 0x0 DUP1 DUP4 DUP2 MSTORE PUSH1 0x20 ADD SWAP1 DUP2 MSTORE PUSH1 0x20 ADD PUSH1 0x0 KECCAK256 PUSH1 0x3 ADD PUSH1 0x0 SWAP1 SLOAD SWAP1 PUSH2 0x100 EXP SWAP1 DIV PUSH1 0xFF AND PUSH2 0x5B4 JUMPI PUSH1 0x40 MLOAD PUSH32 0x8C379A000000000000000000000000000000000000000000000000000000000 DUP2 MSTORE PUSH1 0x4 ADD PUSH2 0x5AB SWAP1 PUSH2 0x1096 JUMP JUMPDEST PUSH1 0x40 MLOAD DUP1 SWAP2 SUB SWAP1 REVERT JUMPDEST PUSH1 0x0 DUP1 DUP4 DUP2 MSTORE PUSH1 0x20 ADD SWAP1 DUP2 MSTORE PUSH1 0x20 ADD PUSH1 0x0 KECCAK256 PUSH1 0x2 ADD SLOAD TIMESTAMP LT PUSH2 0x60B JUMPI PUSH1 0x40 MLOAD PUSH32 0x8C379A000000000000000000000000000000000000000000000000000000000 DUP2 MSTORE PUSH1 0x4 ADD PUSH2 0x602 SWAP1 PUSH2 0x1102 JUMP JUMPDEST PUSH1 0x40 MLOAD DUP1 SWAP2 SUB SWAP1 REVERT JUMPDEST PUSH1 0x0 DUP1 DUP4 DUP2 MSTORE PUSH1 0x20 ADD SWAP1 DUP2 MSTORE PUSH1 0x20 ADD PUSH1 0x0 KECCAK256 PUSH1 0x1 ADD DUP1 SLOAD SWAP1 POP DUP2 LT PUSH2 0x665 JUMPI PUSH1 0x40 MLOAD PUSH32 0x8C379A000000000000000000000000000000000000000000000000000000000 DUP2 MSTORE PUSH1 0x4 ADD PUSH2 0x65C SWAP1 PUSH2 0x116E JUMP JUMPDEST PUSH1 0x40 MLOAD DUP1 SWAP2 SUB SWAP1 REVERT JUMPDEST PUSH1 0x0 DUP1 DUP4 DUP2 MSTORE PUSH1 0x20 ADD SWAP1 DUP2 MSTORE PUSH1 0x20 ADD PUSH1 0x0 KECCAK256 PUSH1 0x1 ADD DUP2 DUP2 SLOAD DUP2 LT PUSH2 0x68C JUMPI PUSH2 0x68B PUSH2 0x118E JUMP JUMPDEST JUMPDEST SWAP1 PUSH1 0x0 MSTORE PUSH1 0x20 PUSH1 0x0 KECCAK256 SWAP1 PUSH1 0x2 MUL ADD PUSH1 0x1 ADD PUSH1 0x0 DUP2 SLOAD DUP1 SWAP3 SWAP2 SWAP1 PUSH2 0x6AE SWAP1 PUSH2 0x11EC JUMP JUMPDEST SWAP2 SWAP1 POP SSTORE POP PUSH1 0x1 PUSH1 0x2 PUSH1 0x0 CALLER PUSH20 0xFFFFFFFFFFFFFFFFFFFFFFFFFFFFFFFFFFFFFFFF AND PUSH20 0xFFFFFFFFFFFFFFFFFFFFFFFFFFFFFFFFFFFFFFFF AND DUP2 MSTORE PUSH1 0x20 ADD SWAP1 DUP2 MSTORE PUSH1 0x20 ADD PUSH1 0x0 KECCAK256 PUSH1 0x0 DUP5 DUP2 MSTORE PUSH1 0x20 ADD SWAP1 DUP2 MSTORE PUSH1 0x20 ADD PUSH1 0x0 KECCAK256 PUSH1 0x0 PUSH2 0x100 EXP DUP2 SLOAD DUP2 PUSH1 0xFF MUL NOT AND SWAP1 DUP4 ISZERO ISZERO MUL OR SWAP1 SSTORE POP POP POP JUMP JUMPDEST PUSH1 0x1 PUSH1 0x0 DUP2 SLOAD DUP1 SWAP3 SWAP2 SWAP1 PUSH2 0x733 SWAP1 PUSH2 0x11EC JUMP JUMPDEST SWAP2 SWAP1 POP SSTORE POP PUSH1 0x0 DUP1 PUSH1 0x0 PUSH1 0x1 SLOAD DUP2 MSTORE PUSH1 0x20 ADD SWAP1 DUP2 MSTORE PUSH1 0x20 ADD PUSH1 0x0 KECCAK256 SWAP1 POP DUP4 DUP2 PUSH1 0x0 ADD SWAP1 DUP2 PUSH2 0x761 SWAP2 SWAP1 PUSH2 0x13E0 JUMP JUMPDEST POP PUSH1 0x3C DUP3 PUSH2 0x76F SWAP2 SWAP1 PUSH2 0x14B2 JUMP JUMPDEST TIMESTAMP PUSH2 0x77A SWAP2 SWAP1 PUSH2 0x14F4 JUMP JUMPDEST DUP2 PUSH1 0x2 ADD DUP2 SWAP1 SSTORE POP PUSH1 0x1 DUP2 PUSH1 0x3 ADD PUSH1 0x0 PUSH2 0x100 EXP DUP2 SLOAD DUP2 PUSH1 0xFF MUL NOT AND SWAP1 DUP4 ISZERO ISZERO MUL OR SWAP1 SSTORE POP PUSH1 0x0 JUMPDEST DUP4 MLOAD DUP2 LT ISZERO PUSH2 0x837 JUMPI DUP2 PUSH1 0x1 ADD PUSH1 0x40 MLOAD DUP1 PUSH1 0x40 ADD PUSH1 0x40 MSTORE DUP1 DUP7 DUP5 DUP2 MLOAD DUP2 LT PUSH2 0x7CD JUMPI PUSH2 0x7CC PUSH2 0x118E JUMP JUMPDEST JUMPDEST PUSH1 0x20 MUL PUSH1 0x20 ADD ADD MLOAD DUP2 MSTORE PUSH1 0x20 ADD PUSH1 0x0 DUP2 MSTORE POP SWAP1 DUP1 PUSH1 0x1 DUP2 SLOAD ADD DUP1 DUP3 SSTORE DUP1 SWAP2 POP POP PUSH1 0x1 SWAP1 SUB SWAP1 PUSH1 0x0 MSTORE PUSH1 0x20 PUSH1 0x0 KECCAK256 SWAP1 PUSH1 0x2 MUL ADD PUSH1 0x0 SWAP1 SWAP2 SWAP1 SWAP2 SWAP1 SWAP2 POP PUSH1 0x0 DUP3 ADD MLOAD DUP2 PUSH1 0x0 ADD SWAP1 DUP2 PUSH2 0x81D SWAP2 SWAP1 PUSH2 0x13E0 JUMP JUMPDEST POP PUSH1 0x20 DUP3 ADD MLOAD DUP2 PUSH1 0x1 ADD SSTORE POP POP DUP1 DUP1 PUSH1 0x1 ADD SWAP2 POP POP PUSH2 0x7A2 JUMP JUMPDEST POP POP POP POP POP JUMP JUMPDEST PUSH1 0x0 PUSH1 0x40 MLOAD SWAP1 POP SWAP1 JUMP JUMPDEST PUSH1 0x0 DUP1 REVERT JUMPDEST PUSH1 0x0 DUP1 REVERT JUMPDEST PUSH1 0x0 DUP2 SWAP1 POP SWAP2 SWAP1 POP JUMP JUMPDEST PUSH2 0x865 DUP2 PUSH2 0x852 JUMP JUMPDEST DUP2 EQ PUSH2 0x870 JUMPI PUSH1 0x0 DUP1 REVERT JUMPDEST POP JUMP JUMPDEST PUSH1 0x0 DUP2 CALLDATALOAD SWAP1 POP PUSH2 0x882 DUP2 PUSH2 0x85C JUMP JUMPDEST SWAP3 SWAP2 POP POP JUMP JUMPDEST PUSH1 0x0 PUSH1 0x20 DUP3 DUP5 SUB SLT ISZERO PUSH2 0x89E JUMPI PUSH2 0x89D PUSH2 0x848 JUMP JUMPDEST JUMPDEST PUSH1 0x0 PUSH2 0x8AC DUP5 DUP3 DUP6 ADD PUSH2 0x873 JUMP JUMPDEST SWAP2 POP POP SWAP3 SWAP2 POP POP JUMP JUMPDEST PUSH1 0x0 DUP2 MLOAD SWAP1 POP SWAP2 SWAP1 POP JUMP JUMPDEST PUSH1 0x0 DUP3 DUP3 MSTORE PUSH1 0x20 DUP3 ADD SWAP1 POP SWAP3 SWAP2 POP POP JUMP JUMPDEST PUSH1 0x0 JUMPDEST DUP4 DUP2 LT ISZERO PUSH2 0x8EF JUMPI DUP1 DUP3 ADD MLOAD DUP2 DUP5 ADD MSTORE PUSH1 0x20 DUP2 ADD SWAP1 POP PUSH2 0x8D4 JUMP JUMPDEST PUSH1 0x0 DUP5 DUP5 ADD MSTORE POP POP POP POP JUMP JUMPDEST PUSH1 0x0 PUSH1 0x1F NOT PUSH1 0x1F DUP4 ADD AND SWAP1 POP SWAP2 SWAP1 POP JUMP JUMPDEST PUSH1 0x0 PUSH2 0x917 DUP3 PUSH2 0x8B5 JUMP JUMPDEST PUSH2 0x921 DUP2 DUP6 PUSH2 0x8C0 JUMP JUMPDEST SWAP4 POP PUSH2 0x931 DUP2 DUP6 PUSH1 0x20 DUP7 ADD PUSH2 0x8D1 JUMP JUMPDEST PUSH2 0x93A DUP2 PUSH2 0x8FB JUMP JUMPDEST DUP5 ADD SWAP2 POP POP SWAP3 SWAP2 POP POP JUMP JUMPDEST PUSH2 0x94E DUP2 PUSH2 0x852 JUMP JUMPDEST DUP3 MSTORE POP POP JUMP JUMPDEST PUSH1 0x0 DUP2 ISZERO ISZERO SWAP1 POP SWAP2 SWAP1 POP JUMP JUMPDEST PUSH2 0x969 DUP2 PUSH2 0x954 JUMP JUMPDEST DUP3 MSTORE POP POP JUMP JUMPDEST PUSH1 0x0 PUSH1 0x60 DUP3 ADD SWAP1 POP DUP2 DUP2 SUB PUSH1 0x0 DUP4 ADD MSTORE PUSH2 0x989 DUP2 DUP7 PUSH2 0x90C JUMP JUMPDEST SWAP1 POP PUSH2 0x998 PUSH1 0x20 DUP4 ADD DUP6 PUSH2 0x945 JUMP JUMPDEST PUSH2 0x9A5 PUSH1 0x40 DUP4 ADD DUP5 PUSH2 0x960 JUMP JUMPDEST SWAP5 SWAP4 POP POP POP POP JUMP JUMPDEST PUSH1 0x0 PUSH20 0xFFFFFFFFFFFFFFFFFFFFFFFFFFFFFFFFFFFFFFFF DUP3 AND SWAP1 POP SWAP2 SWAP1 POP JUMP JUMPDEST PUSH1 0x0 PUSH2 0x9D8 DUP3 PUSH2 0x9AD JUMP JUMPDEST SWAP1 POP SWAP2 SWAP1 POP JUMP JUMPDEST PUSH2 0x9E8 DUP2 PUSH2 0x9CD JUMP JUMPDEST DUP2 EQ PUSH2 0x9F3 JUMPI PUSH1 0x0 DUP1 REVERT JUMPDEST POP JUMP JUMPDEST PUSH1 0x0 DUP2 CALLDATALOAD SWAP1 POP PUSH2 0xA05 DUP2 PUSH2 0x9DF JUMP JUMPDEST SWAP3 SWAP2 POP POP JUMP JUMPDEST PUSH1 0x0 DUP1 PUSH1 0x40 DUP4 DUP6 SUB SLT ISZERO PUSH2 0xA22 JUMPI PUSH2 0xA21 PUSH2 0x848 JUMP JUMPDEST JUMPDEST PUSH1 0x0 PUSH2 0xA30 DUP6 DUP3 DUP7 ADD PUSH2 0x9F6 JUMP JUMPDEST SWAP3 POP POP PUSH1 0x20 PUSH2 0xA41 DUP6 DUP3 DUP7 ADD PUSH2 0x873 JUMP JUMPDEST SWAP2 POP POP SWAP3 POP SWAP3 SWAP1 POP JUMP JUMPDEST PUSH1 0x0 PUSH1 0x20 DUP3 ADD SWAP1 POP PUSH2 0xA60 PUSH1 0x0 DUP4 ADD DUP5 PUSH2 0x960 JUMP JUMPDEST SWAP3 SWAP2 POP POP JUMP JUMPDEST PUSH1 0x0 DUP2 MLOAD SWAP1 POP SWAP2 SWAP1 POP JUMP JUMPDEST PUSH1 0x0 DUP3 DUP3 MSTORE PUSH1 0x20 DUP3 ADD SWAP1 POP SWAP3 SWAP2 POP POP JUMP JUMPDEST PUSH1 0x0 DUP2 SWAP1 POP PUSH1 0x20 DUP3 ADD SWAP1 POP SWAP2 SWAP1 POP JUMP JUMPDEST PUSH1 0x0 DUP3 DUP3 MSTORE PUSH1 0x20 DUP3 ADD SWAP1 POP SWAP3 SWAP2 POP POP JUMP JUMPDEST PUSH1 0x0 PUSH2 0xAAE DUP3 PUSH2 0x8B5 JUMP JUMPDEST PUSH2 0xAB8 DUP2 DUP6 PUSH2 0xA92 JUMP JUMPDEST SWAP4 POP PUSH2 0xAC8 DUP2 DUP6 PUSH1 0x20 DUP7 ADD PUSH2 0x8D1 JUMP JUMPDEST PUSH2 0xAD1 DUP2 PUSH2 0x8FB JUMP JUMPDEST DUP5 ADD SWAP2 POP POP SWAP3 SWAP2 POP POP JUMP JUMPDEST PUSH2 0xAE5 DUP2 PUSH2 0x852 JUMP JUMPDEST DUP3 MSTORE POP POP JUMP JUMPDEST PUSH1 0x0 PUSH1 0x40 DUP4 ADD PUSH1 0x0 DUP4 ADD MLOAD DUP5 DUP3 SUB PUSH1 0x0 DUP7 ADD MSTORE PUSH2 0xB08 DUP3 DUP3 PUSH2 0xAA3 JUMP JUMPDEST SWAP2 POP POP PUSH1 0x20 DUP4 ADD MLOAD PUSH2 0xB1D PUSH1 0x20 DUP7 ADD DUP3 PUSH2 0xADC JUMP JUMPDEST POP DUP1 SWAP2 POP POP SWAP3 SWAP2 POP POP JUMP JUMPDEST PUSH1 0x0 PUSH2 0xB34 DUP4 DUP4 PUSH2 0xAEB JUMP JUMPDEST SWAP1 POP SWAP3 SWAP2 POP POP JUMP JUMPDEST PUSH1 0x0 PUSH1 0x20 DUP3 ADD SWAP1 POP SWAP2 SWAP1 POP JUMP JUMPDEST PUSH1 0x0 PUSH2 0xB54 DUP3 PUSH2 0xA66 JUMP JUMPDEST PUSH2 0xB5E DUP2 DUP6 PUSH2 0xA71 JUMP JUMPDEST SWAP4 POP DUP4 PUSH1 0x20 DUP3 MUL DUP6 ADD PUSH2 0xB70 DUP6 PUSH2 0xA82 JUMP JUMPDEST DUP1 PUSH1 0x0 JUMPDEST DUP6 DUP2 LT ISZERO PUSH2 0xBAC JUMPI DUP5 DUP5 SUB DUP10 MSTORE DUP2 MLOAD PUSH2 0xB8D DUP6 DUP3 PUSH2 0xB28 JUMP JUMPDEST SWAP5 POP PUSH2 0xB98 DUP4 PUSH2 0xB3C JUMP JUMPDEST SWAP3 POP PUSH1 0x20 DUP11 ADD SWAP10 POP POP PUSH1 0x1 DUP2 ADD SWAP1 POP PUSH2 0xB74 JUMP JUMPDEST POP DUP3 SWAP8 POP DUP8 SWAP6 POP POP POP POP POP POP SWAP3 SWAP2 POP POP JUMP JUMPDEST PUSH1 0x0 PUSH1 0x80 DUP3 ADD SWAP1 POP DUP2 DUP2 SUB PUSH1 0x0 DUP4 ADD MSTORE PUSH2 0xBD8 DUP2 DUP8 PUSH2 0x90C JUMP JUMPDEST SWAP1 POP DUP2 DUP2 SUB PUSH1 0x20 DUP4 ADD MSTORE PUSH2 0xBEC DUP2 DUP7 PUSH2 0xB49 JUMP JUMPDEST SWAP1 POP PUSH2 0xBFB PUSH1 0x40 DUP4 ADD DUP6 PUSH2 0x945 JUMP JUMPDEST PUSH2 0xC08 PUSH1 0x60 DUP4 ADD DUP5 PUSH2 0x960 JUMP JUMPDEST SWAP6 SWAP5 POP POP POP POP POP JUMP JUMPDEST PUSH1 0x0 PUSH1 0x20 DUP3 ADD SWAP1 POP PUSH2 0xC26 PUSH1 0x0 DUP4 ADD DUP5 PUSH2 0x945 JUMP JUMPDEST SWAP3 SWAP2 POP POP JUMP JUMPDEST PUSH1 0x0 DUP1 PUSH1 0x40 DUP4 DUP6 SUB SLT ISZERO PUSH2 0xC43 JUMPI PUSH2 0xC42 PUSH2 0x848 JUMP JUMPDEST JUMPDEST PUSH1 0x0 PUSH2 0xC51 DUP6 DUP3 DUP7 ADD PUSH2 0x873 JUMP JUMPDEST SWAP3 POP POP PUSH1 0x20 PUSH2 0xC62 DUP6 DUP3 DUP7 ADD PUSH2 0x873 JUMP JUMPDEST SWAP2 POP POP SWAP3 POP SWAP3 SWAP1 POP JUMP JUMPDEST PUSH1 0x0 DUP1 REVERT JUMPDEST PUSH1 0x0 DUP1 REVERT JUMPDEST PUSH32 0x4E487B7100000000000000000000000000000000000000000000000000000000 PUSH1 0x0 MSTORE PUSH1 0x41 PUSH1 0x4 MSTORE PUSH1 0x24 PUSH1 0x0 REVERT JUMPDEST PUSH2 0xCAE DUP3 PUSH2 0x8FB JUMP JUMPDEST DUP2 ADD DUP2 DUP2 LT PUSH8 0xFFFFFFFFFFFFFFFF DUP3 GT OR ISZERO PUSH2 0xCCD JUMPI PUSH2 0xCCC PUSH2 0xC76 JUMP JUMPDEST JUMPDEST DUP1 PUSH1 0x40 MSTORE POP POP POP JUMP JUMPDEST PUSH1 0x0 PUSH2 0xCE0 PUSH2 0x83E JUMP JUMPDEST SWAP1 POP PUSH2 0xCEC DUP3 DUP3 PUSH2 0xCA5 JUMP JUMPDEST SWAP2 SWAP1 POP JUMP JUMPDEST PUSH1 0x0 PUSH8 0xFFFFFFFFFFFFFFFF DUP3 GT ISZERO PUSH2 0xD0C JUMPI PUSH2 0xD0B PUSH2 0xC76 JUMP JUMPDEST JUMPDEST PUSH2 0xD15 DUP3 PUSH2 0x8FB JUMP JUMPDEST SWAP1 POP PUSH1 0x20 DUP2 ADD SWAP1 POP SWAP2 SWAP1 POP JUMP JUMPDEST DUP3 DUP2 DUP4 CALLDATACOPY PUSH1 0x0 DUP4 DUP4 ADD MSTORE POP POP POP JUMP JUMPDEST PUSH1 0x0 PUSH2 0xD44 PUSH2 0xD3F DUP5 PUSH2 0xCF1 JUMP JUMPDEST PUSH2 0xCD6 JUMP JUMPDEST SWAP1 POP DUP3 DUP2 MSTORE PUSH1 0x20 DUP2 ADD DUP5 DUP5 DUP5 ADD GT ISZERO PUSH2 0xD60 JUMPI PUSH2 0xD5F PUSH2 0xC71 JUMP JUMPDEST JUMPDEST PUSH2 0xD6B DUP5 DUP3 DUP6 PUSH2 0xD22 JUMP JUMPDEST POP SWAP4 SWAP3 POP POP POP JUMP JUMPDEST PUSH1 0x0 DUP3 PUSH1 0x1F DUP4 ADD SLT PUSH2 0xD88 JUMPI PUSH2 0xD87 PUSH2 0xC6C JUMP JUMPDEST JUMPDEST DUP2 CALLDATALOAD PUSH2 0xD98 DUP5 DUP3 PUSH1 0x20 DUP7 ADD PUSH2 0xD31 JUMP JUMPDEST SWAP2 POP POP SWAP3 SWAP2 POP POP JUMP JUMPDEST PUSH1 0x0 PUSH8 0xFFFFFFFFFFFFFFFF DUP3 GT ISZERO PUSH2 0xDBC JUMPI PUSH2 0xDBB PUSH2 0xC76 JUMP JUMPDEST JUMPDEST PUSH1 0x20 DUP3 MUL SWAP1 POP PUSH1 0x20 DUP2 ADD SWAP1 POP SWAP2 SWAP1 POP JUMP JUMPDEST PUSH1 0x0 DUP1 REVERT JUMPDEST PUSH1 0x0 PUSH2 0xDE5 PUSH2 0xDE0 DUP5 PUSH2 0xDA1 JUMP JUMPDEST PUSH2 0xCD6 JUMP JUMPDEST SWAP1 POP DUP1 DUP4 DUP3 MSTORE PUSH1 0x20 DUP3 ADD SWAP1 POP PUSH1 0x20 DUP5 MUL DUP4 ADD DUP6 DUP2 GT ISZERO PUSH2 0xE08 JUMPI PUSH2 0xE07 PUSH2 0xDCD JUMP JUMPDEST JUMPDEST DUP4 JUMPDEST DUP2 DUP2 LT ISZERO PUSH2 0xE4F JUMPI DUP1 CALLDATALOAD PUSH8 0xFFFFFFFFFFFFFFFF DUP2 GT ISZERO PUSH2 0xE2D JUMPI PUSH2 0xE2C PUSH2 0xC6C JUMP JUMPDEST JUMPDEST DUP1 DUP7 ADD PUSH2 0xE3A DUP10 DUP3 PUSH2 0xD73 JUMP JUMPDEST DUP6 MSTORE PUSH1 0x20 DUP6 ADD SWAP5 POP POP POP PUSH1 0x20 DUP2 ADD SWAP1 POP PUSH2 0xE0A JUMP JUMPDEST POP POP POP SWAP4 SWAP3 POP POP POP JUMP JUMPDEST PUSH1 0x0 DUP3 PUSH1 0x1F DUP4 ADD SLT PUSH2 0xE6E JUMPI PUSH2 0xE6D PUSH2 0xC6C JUMP JUMPDEST JUMPDEST DUP2 CALLDATALOAD PUSH2 0xE7E DUP5 DUP3 PUSH1 0x20 DUP7 ADD PUSH2 0xDD2 JUMP JUMPDEST SWAP2 POP POP SWAP3 SWAP2 POP POP JUMP JUMPDEST PUSH1 0x0 DUP1 PUSH1 0x0 PUSH1 0x60 DUP5 DUP7 SUB SLT ISZERO PUSH2 0xEA0 JUMPI PUSH2 0xE9F PUSH2 0x848 JUMP JUMPDEST JUMPDEST PUSH1 0x0 DUP5 ADD CALLDATALOAD PUSH8 0xFFFFFFFFFFFFFFFF DUP2 GT ISZERO PUSH2 0xEBE JUMPI PUSH2 0xEBD PUSH2 0x84D JUMP JUMPDEST JUMPDEST PUSH2 0xECA DUP7 DUP3 DUP8 ADD PUSH2 0xD73 JUMP JUMPDEST SWAP4 POP POP PUSH1 0x20 DUP5 ADD CALLDATALOAD PUSH8 0xFFFFFFFFFFFFFFFF DUP2 GT ISZERO PUSH2 0xEEB JUMPI PUSH2 0xEEA PUSH2 0x84D JUMP JUMPDEST JUMPDEST PUSH2 0xEF7 DUP7 DUP3 DUP8 ADD PUSH2 0xE59 JUMP JUMPDEST SWAP3 POP POP PUSH1 0x40 PUSH2 0xF08 DUP7 DUP3 DUP8 ADD PUSH2 0x873 JUMP JUMPDEST SWAP2 POP POP SWAP3 POP SWAP3 POP SWAP3 JUMP JUMPDEST PUSH32 0x4E487B7100000000000000000000000000000000000000000000000000000000 PUSH1 0x0 MSTORE PUSH1 0x22 PUSH1 0x4 MSTORE PUSH1 0x24 PUSH1 0x0 REVERT JUMPDEST PUSH1 0x0 PUSH1 0x2 DUP3 DIV SWAP1 POP PUSH1 0x1 DUP3 AND DUP1 PUSH2 0xF59 JUMPI PUSH1 0x7F DUP3 AND SWAP2 POP JUMPDEST PUSH1 0x20 DUP3 LT DUP2 SUB PUSH2 0xF6C JUMPI PUSH2 0xF6B PUSH2 0xF12 JUMP JUMPDEST JUMPDEST POP SWAP2 SWAP1 POP JUMP JUMPDEST PUSH32 0x496E76616C6964206576656E7420494400000000000000000000000000000000 PUSH1 0x0 DUP3 ADD MSTORE POP JUMP JUMPDEST PUSH1 0x0 PUSH2 0xFA8 PUSH1 0x10 DUP4 PUSH2 0x8C0 JUMP JUMPDEST SWAP2 POP PUSH2 0xFB3 DUP3 PUSH2 0xF72 JUMP JUMPDEST PUSH1 0x20 DUP3 ADD SWAP1 POP SWAP2 SWAP1 POP JUMP JUMPDEST PUSH1 0x0 PUSH1 0x20 DUP3 ADD SWAP1 POP DUP2 DUP2 SUB PUSH1 0x0 DUP4 ADD MSTORE PUSH2 0xFD7 DUP2 PUSH2 0xF9B JUMP JUMPDEST SWAP1 POP SWAP2 SWAP1 POP JUMP JUMPDEST PUSH32 0x416C726561647920766F74656400000000000000000000000000000000000000 PUSH1 0x0 DUP3 ADD MSTORE POP JUMP JUMPDEST PUSH1 0x0 PUSH2 0x1014 PUSH1 0xD DUP4 PUSH2 0x8C0 JUMP JUMPDEST SWAP2 POP PUSH2 0x101F DUP3 PUSH2 0xFDE JUMP JUMPDEST PUSH1 0x20 DUP3 ADD SWAP1 POP SWAP2 SWAP1 POP JUMP JUMPDEST PUSH1 0x0 PUSH1 0x20 DUP3 ADD SWAP1 POP DUP2 DUP2 SUB PUSH1 0x0 DUP4 ADD MSTORE PUSH2 0x1043 DUP2 PUSH2 0x1007 JUMP JUMPDEST SWAP1 POP SWAP2 SWAP1 POP JUMP JUMPDEST PUSH32 0x4576656E74206973206E6F742061637469766500000000000000000000000000 PUSH1 0x0 DUP3 ADD MSTORE POP JUMP JUMPDEST PUSH1 0x0 PUSH2 0x1080 PUSH1 0x13 DUP4 PUSH2 0x8C0 JUMP JUMPDEST SWAP2 POP PUSH2 0x108B DUP3 PUSH2 0x104A JUMP JUMPDEST PUSH1 0x20 DUP3 ADD SWAP1 POP SWAP2 SWAP1 POP JUMP JUMPDEST PUSH1 0x0 PUSH1 0x20 DUP3 ADD SWAP1 POP DUP2 DUP2 SUB PUSH1 0x0 DUP4 ADD MSTORE PUSH2 0x10AF DUP2 PUSH2 0x1073 JUMP JUMPDEST SWAP1 POP SWAP2 SWAP1 POP JUMP JUMPDEST PUSH32 0x4576656E742068617320656E6465640000000000000000000000000000000000 PUSH1 0x0 DUP3 ADD MSTORE POP JUMP JUMPDEST PUSH1 0x0 PUSH2 0x10EC PUSH1 0xF DUP4 PUSH2 0x8C0 JUMP JUMPDEST SWAP2 POP PUSH2 0x10F7 DUP3 PUSH2 0x10B6 JUMP JUMPDEST PUSH1 0x20 DUP3 ADD SWAP1 POP SWAP2 SWAP1 POP JUMP JUMPDEST PUSH1 0x0 PUSH1 0x20 DUP3 ADD SWAP1 POP DUP2 DUP2 SUB PUSH1 0x0 DUP4 ADD MSTORE PUSH2 0x111B DUP2 PUSH2 0x10DF JUMP JUMPDEST SWAP1 POP SWAP2 SWAP1 POP JUMP JUMPDEST PUSH32 0x496E76616C69642063616E646964617465000000000000000000000000000000 PUSH1 0x0 DUP3 ADD MSTORE POP JUMP JUMPDEST PUSH1 0x0 PUSH2 0x1158 PUSH1 0x11 DUP4 PUSH2 0x8C0 JUMP JUMPDEST SWAP2 POP PUSH2 0x1163 DUP3 PUSH2 0x1122 JUMP JUMPDEST PUSH1 0x20 DUP3 ADD SWAP1 POP SWAP2 SWAP1 POP JUMP JUMPDEST PUSH1 0x0 PUSH1 0x20 DUP3 ADD SWAP1 POP DUP2 DUP2 SUB PUSH1 0x0 DUP4 ADD MSTORE PUSH2 0x1187 DUP2 PUSH2 0x114B JUMP JUMPDEST SWAP1 POP SWAP2 SWAP1 POP JUMP JUMPDEST PUSH32 0x4E487B7100000000000000000000000000000000000000000000000000000000 PUSH1 0x0 MSTORE PUSH1 0x32 PUSH1 0x4 MSTORE PUSH1 0x24 PUSH1 0x0 REVERT JUMPDEST PUSH32 0x4E487B7100000000000000000000000000000000000000000000000000000000 PUSH1 0x0 MSTORE PUSH1 0x11 PUSH1 0x4 MSTORE PUSH1 0x24 PUSH1 0x0 REVERT JUMPDEST PUSH1 0x0 PUSH2 0x11F7 DUP3 PUSH2 0x852 JUMP JUMPDEST SWAP2 POP PUSH32 0xFFFFFFFFFFFFFFFFFFFFFFFFFFFFFFFFFFFFFFFFFFFFFFFFFFFFFFFFFFFFFFFF DUP3 SUB PUSH2 0x1229 JUMPI PUSH2 0x1228 PUSH2 0x11BD JUMP JUMPDEST JUMPDEST PUSH1 0x1 DUP3 ADD SWAP1 POP SWAP2 SWAP1 POP JUMP JUMPDEST PUSH1 0x0 DUP2 SWAP1 POP DUP2 PUSH1 0x0 MSTORE PUSH1 0x20 PUSH1 0x0 KECCAK256 SWAP1 POP SWAP2 SWAP1 POP JUMP JUMPDEST PUSH1 0x0 PUSH1 0x20 PUSH1 0x1F DUP4 ADD DIV SWAP1 POP SWAP2 SWAP1 POP JUMP JUMPDEST PUSH1 0x0 DUP3 DUP3 SHL SWAP1 POP SWAP3 SWAP2 POP POP JUMP JUMPDEST PUSH1 0x0 PUSH1 0x8 DUP4 MUL PUSH2 0x1296 PUSH32 0xFFFFFFFFFFFFFFFFFFFFFFFFFFFFFFFFFFFFFFFFFFFFFFFFFFFFFFFFFFFFFFFF DUP3 PUSH2 0x1259 JUMP JUMPDEST PUSH2 0x12A0 DUP7 DUP4 PUSH2 0x1259 JUMP JUMPDEST SWAP6 POP DUP1 NOT DUP5 AND SWAP4 POP DUP1 DUP7 AND DUP5 OR SWAP3 POP POP POP SWAP4 SWAP3 POP POP POP JUMP JUMPDEST PUSH1 0x0 DUP2 SWAP1 POP SWAP2 SWAP1 POP JUMP JUMPDEST PUSH1 0x0 PUSH2 0x12DD PUSH2 0x12D8 PUSH2 0x12D3 DUP5 PUSH2 0x852 JUMP JUMPDEST PUSH2 0x12B8 JUMP JUMPDEST PUSH2 0x852 JUMP JUMPDEST SWAP1 POP SWAP2 SWAP1 POP JUMP JUMPDEST PUSH1 0x0 DUP2 SWAP1 POP SWAP2 SWAP1 POP JUMP JUMPDEST PUSH2 0x12F7 DUP4 PUSH2 0x12C2 JUMP JUMPDEST PUSH2 0x130B PUSH2 0x1303 DUP3 PUSH2 0x12E4 JUMP JUMPDEST DUP5 DUP5 SLOAD PUSH2 0x1266 JUMP JUMPDEST DUP3 SSTORE POP POP POP POP JUMP JUMPDEST PUSH1 0x0 SWAP1 JUMP JUMPDEST PUSH2 0x1320 PUSH2 0x1313 JUMP JUMPDEST PUSH2 0x132B DUP2 DUP5 DUP5 PUSH2 0x12EE JUMP JUMPDEST POP POP POP JUMP JUMPDEST JUMPDEST DUP2 DUP2 LT ISZERO PUSH2 0x134F JUMPI PUSH2 0x1344 PUSH1 0x0 DUP3 PUSH2 0x1318 JUMP JUMPDEST PUSH1 0x1 DUP2 ADD SWAP1 POP PUSH2 0x1331 JUMP JUMPDEST POP POP JUMP JUMPDEST PUSH1 0x1F DUP3 GT ISZERO PUSH2 0x1394 JUMPI PUSH2 0x1365 DUP2 PUSH2 0x1234 JUMP JUMPDEST PUSH2 0x136E DUP5 PUSH2 0x1249 JUMP JUMPDEST DUP2 ADD PUSH1 0x20 DUP6 LT ISZERO PUSH2 0x137D JUMPI DUP2 SWAP1 POP JUMPDEST PUSH2 0x1391 PUSH2 0x1389 DUP6 PUSH2 0x1249 JUMP JUMPDEST DUP4 ADD DUP3 PUSH2 0x1330 JUMP JUMPDEST POP POP JUMPDEST POP POP POP JUMP JUMPDEST PUSH1 0x0 DUP3 DUP3 SHR SWAP1 POP SWAP3 SWAP2 POP POP JUMP JUMPDEST PUSH1 0x0 PUSH2 0x13B7 PUSH1 0x0 NOT DUP5 PUSH1 0x8 MUL PUSH2 0x1399 JUMP JUMPDEST NOT DUP1 DUP4 AND SWAP2 POP POP SWAP3 SWAP2 POP POP JUMP JUMPDEST PUSH1 0x0 PUSH2 0x13D0 DUP4 DUP4 PUSH2 0x13A6 JUMP JUMPDEST SWAP2 POP DUP3 PUSH1 0x2 MUL DUP3 OR SWAP1 POP SWAP3 SWAP2 POP POP JUMP JUMPDEST PUSH2 0x13E9 DUP3 PUSH2 0x8B5 JUMP JUMPDEST PUSH8 0xFFFFFFFFFFFFFFFF DUP2 GT ISZERO PUSH2 0x1402 JUMPI PUSH2 0x1401 PUSH2 0xC76 JUMP JUMPDEST JUMPDEST PUSH2 0x140C DUP3 SLOAD PUSH2 0xF41 JUMP JUMPDEST PUSH2 0x1417 DUP3 DUP3 DUP6 PUSH2 0x1353 JUMP JUMPDEST PUSH1 0x0 PUSH1 0x20 SWAP1 POP PUSH1 0x1F DUP4 GT PUSH1 0x1 DUP2 EQ PUSH2 0x144A JUMPI PUSH1 0x0 DUP5 ISZERO PUSH2 0x1438 JUMPI DUP3 DUP8 ADD MLOAD SWAP1 POP JUMPDEST PUSH2 0x1442 DUP6 DUP3 PUSH2 0x13C4 JUMP JUMPDEST DUP7 SSTORE POP PUSH2 0x14AA JUMP JUMPDEST PUSH1 0x1F NOT DUP5 AND PUSH2 0x1458 DUP7 PUSH2 0x1234 JUMP JUMPDEST PUSH1 0x0 JUMPDEST DUP3 DUP2 LT ISZERO PUSH2 0x1480 JUMPI DUP5 DUP10 ADD MLOAD DUP3 SSTORE PUSH1 0x1 DUP3 ADD SWAP2 POP PUSH1 0x20 DUP6 ADD SWAP5 POP PUSH1 0x20 DUP2 ADD SWAP1 POP PUSH2 0x145B JUMP JUMPDEST DUP7 DUP4 LT ISZERO PUSH2 0x149D JUMPI DUP5 DUP10 ADD MLOAD PUSH2 0x1499 PUSH1 0x1F DUP10 AND DUP3 PUSH2 0x13A6 JUMP JUMPDEST DUP4 SSTORE POP JUMPDEST PUSH1 0x1 PUSH1 0x2 DUP9 MUL ADD DUP9 SSTORE POP POP POP JUMPDEST POP POP POP POP POP POP JUMP JUMPDEST PUSH1 0x0 PUSH2 0x14BD DUP3 PUSH2 0x852 JUMP JUMPDEST SWAP2 POP PUSH2 0x14C8 DUP4 PUSH2 0x852 JUMP JUMPDEST SWAP3 POP DUP3 DUP3 MUL PUSH2 0x14D6 DUP2 PUSH2 0x852 JUMP JUMPDEST SWAP2 POP DUP3 DUP3 DIV DUP5 EQ DUP4 ISZERO OR PUSH2 0x14ED JUMPI PUSH2 0x14EC PUSH2 0x11BD JUMP JUMPDEST JUMPDEST POP SWAP3 SWAP2 POP POP JUMP JUMPDEST PUSH1 0x0 PUSH2 0x14FF DUP3 PUSH2 0x852 JUMP JUMPDEST SWAP2 POP PUSH2 0x150A DUP4 PUSH2 0x852 JUMP JUMPDEST SWAP3 POP DUP3 DUP3 ADD SWAP1 POP DUP1 DUP3 GT ISZERO PUSH2 0x1522 JUMPI PUSH2 0x1521 PUSH2 0x11BD JUMP JUMPDEST JUMPDEST SWAP3 SWAP2 POP POP JUMP INVALID LOG2 PUSH5 0x6970667358 0x22 SLT KECCAK256 DUP3 PUSH29 0x39F222DB0FC0D2464FDF19BBB110B6E608272980D7CB89250F74B9F3D5 EQ PUSH5 0x736F6C6343 STOP ADDMOD SHR STOP CALLER "},"methodIdentifiers":{"createEvent(string,string[],uint256)":"f36ccc5c","eventCount()":"71be2e4a","events(uint256)":"0b791430","getEvent(uint256)":"6d1884e0","hasVoted(address,uint256)":"42545825","vote(uint256,uint256)":"b384abef"}}}}}