{"contracts/Voting.sol":{"Voting":{"abi":[{"anonymous":false,"inputs":[{"indexed":true,"internalType":"uint256","name":"eventId","type":"uint256"},{"indexed":false,"internalType":"string","name":"title","type":"string"}],"name":"EventCreated","type":"event"},{"anonymous":false,"inputs":[{"indexed":true,"internalType":"uint256","name":"eventId","type":"uint256"},{"indexed":true,"internalType":"address","name":"voter","type":"address"},{"indexed":false,"internalType":"uint256","name":"candidateIndex","type":"uint256"}],"name":"VoteCast","type":"event"},{"inputs":[{"internalType":"string","name":"_title","type":"string"},{"internalType":"string[]","name":"_candidateNames","type":"string[]"},{"internalType":"uint256","name":"_durationInMinutes","type":"uint256"}],"name":"createEvent","outputs":[{"internalType":"uint256","name":"","type":"uint256"}],"stateMutability":"nonpayable","type":"function"},{"inputs":[],"name":"eventCount","outputs":[{"internalType":"uint256","name":"","type":"uint256"}],"stateMutability":"view","type":"function"},{"inputs":[{"internalType":"uint256","name":"","type":"uint256"}],"name":"events","outputs":[{"internalType":"string","name":"title","type":"string"},{"internalType":"uint256","name":"endTime","type":"uint256"},{"internalType":"bool","name":"active","type":"bool"}],"stateMutability":"view","type":"function"},{"inputs":[{"internalType":"uint256","name":"_eventId","type":"uint256"}],"name":"getEvent","outputs":[{"internalType":"string","name":"title","type":"string"},{"components":[{"internalType":"string","name":"name","type":"string"},{"internalType":"uint256","name":"voteCount","type":"uint256"}],"internalType":"struct Voting.Candidate[]","name":"candidates","type":"tuple[]"},{"internalType":"uint256","name":"endTime","type":"uint256"},{"internalType":"bool","name":"active","type":"bool"}],"stateMutability":"view","type":"function"},{"inputs":[{"internalType":"address","name":"","type":"address"},{"internalType":"uint256","name":"","type":"uint256"}],"name":"hasVoted","outputs":[{"internalType":"bool","name":"","type":"bool"}],"stateMutability":"view","type":"function"},{"inputs":[{"internalType":"uint256","name":"_eventId","type":"uint256"},{"internalType":"uint256","name":"_candidateIndex","type":"uint256"}],"name":"vote","outputs":[],"stateMutability":"nonpayable","type":"function"}],"evm":{"bytecode":{"linkReferences":{},"object":"6080604052348015600f57600080fd5b506116268061001f6000396000f3fe608060405234801561001057600080fd5b50600436106100625760003560e01c80630b7914301461006757806342545825146100995780636d1884e0146100c957806371be2e4a146100fc578063b384abef1461011a578063f36ccc5c14610136575b600080fd5b610081600480360381019061007c919061092e565b610166565b60405161009093929190610a15565b60405180910390f35b6100b360048036038101906100ae9190610ab1565b610225565b6040516100c09190610af1565b60405180910390f35b6100e360048036038101906100de919061092e565b610254565b6040516100f39493929190610c64565b60405180910390f35b610104610471565b6040516101119190610cb7565b60405180910390f35b610134600480360381019061012f9190610cd2565b610477565b005b610150600480360381019061014b9190610f2d565b610783565b60405161015d9190610cb7565b60405180910390f35b600060205280600052604060002060009150905080600001805461018990610fe7565b80601f01602080910402602001604051908101604052809291908181526020018280546101b590610fe7565b80156102025780601f106101d757610100808354040283529160200191610202565b820191906000526020600020905b8154815290600101906020018083116101e557829003601f168201915b5050505050908060020154908060030160009054906101000a900460ff16905083565b60026020528160005260406000206020528060005260406000206000915091509054906101000a900460ff1681565b60608060008060008511801561026c57506001548511155b6102ab576040517f08c379a00000000000000000000000000000000000000000000000000000000081526004016102a290611064565b60405180910390fd5b60008060008781526020019081526020016000209050806000018160010182600201548360030160009054906101000a900460ff168380546102ec90610fe7565b80601f016020809104026020016040519081016040528092919081815260200182805461031890610fe7565b80156103655780601f1061033a57610100808354040283529160200191610365565b820191906000526020600020905b81548152906001019060200180831161034857829003601f168201915b5050505050935082805480602002602001604051908101604052809291908181526020016000905b8282101561045b57838290600052602060002090600202016040518060400160405290816000820180546103c090610fe7565b80601f01602080910402602001604051908101604052809291908181526020018280546103ec90610fe7565b80156104395780601f1061040e57610100808354040283529160200191610439565b820191906000526020600020905b81548152906001019060200180831161041c57829003601f168201915b505050505081526020016001820154815250508152602001906001019061038d565b5050505092509450945094509450509193509193565b60015481565b60008211801561048957506001548211155b6104c8576040517f08c379a00000000000000000000000000000000000000000000000000000000081526004016104bf90611064565b60405180910390fd5b600260003373ffffffffffffffffffffffffffffffffffffffff1673ffffffffffffffffffffffffffffffffffffffff168152602001908152602001600020600083815260200190815260200160002060009054906101000a900460ff1615610566576040517f08c379a000000000000000000000000000000000000000000000000000000000815260040161055d906110d0565b60405180910390fd5b60008083815260200190815260200160002060030160009054906101000a900460ff166105c8576040517f08c379a00000000000000000000000000000000000000000000000000000000081526004016105bf9061113c565b60405180910390fd5b60008083815260200190815260200160002060020154421061061f576040517f08c379a0000000000000000000000000000000000000000000000000000000008152600401610616906111a8565b60405180910390fd5b600080838152602001908152602001600020600101805490508110610679576040517f08c379a000000000000000000000000000000000000000000000000000000000815260040161067090611214565b60405180910390fd5b60008083815260200190815260200160002060010181815481106106a05761069f611234565b5b906000526020600020906002020160010160008154809291906106c290611292565b91905055506001600260003373ffffffffffffffffffffffffffffffffffffffff1673ffffffffffffffffffffffffffffffffffffffff168152602001908152602001600020600084815260200190815260200160002060006101000a81548160ff0219169083151502179055503373ffffffffffffffffffffffffffffffffffffffff16827f2acce567deca3aabf56327adbb4524bd5318936eaefa69e3a5208ffda0cfec09836040516107779190610cb7565b60405180910390a35050565b60006001600081548092919061079890611292565b9190505550600080600060015481526020019081526020016000209050848160000190816107c69190611486565b50603c836107d49190611558565b426107df919061159a565b816002018190555060018160030160006101000a81548160ff02191690831515021790555060005b845181101561089c5781600101604051806040016040528087848151811061083257610831611234565b5b602002602001015181526020016000815250908060018154018082558091505060019003906000526020600020906002020160009091909190915060008201518160000190816108829190611486565b506020820151816001015550508080600101915050610807565b506001547f9ce3d6db707bca4ba0eabed8fba1e2c013a1c0bc1132a764170a7854d198c73d866040516108cf91906115ce565b60405180910390a26001549150509392505050565b6000604051905090565b600080fd5b600080fd5b6000819050919050565b61090b816108f8565b811461091657600080fd5b50565b60008135905061092881610902565b92915050565b600060208284031215610944576109436108ee565b5b600061095284828501610919565b91505092915050565b600081519050919050565b600082825260208201905092915050565b60005b8381101561099557808201518184015260208101905061097a565b60008484015250505050565b6000601f19601f8301169050919050565b60006109bd8261095b565b6109c78185610966565b93506109d7818560208601610977565b6109e0816109a1565b840191505092915050565b6109f4816108f8565b82525050565b60008115159050919050565b610a0f816109fa565b82525050565b60006060820190508181036000830152610a2f81866109b2565b9050610a3e60208301856109eb565b610a4b6040830184610a06565b949350505050565b600073ffffffffffffffffffffffffffffffffffffffff82169050919050565b6000610a7e82610a53565b9050919050565b610a8e81610a73565b8114610a9957600080fd5b50565b600081359050610aab81610a85565b92915050565b60008060408385031215610ac857610ac76108ee565b5b6000610ad685828601610a9c565b9250506020610ae785828601610919565b9150509250929050565b6000602082019050610b066000830184610a06565b92915050565b600081519050919050565b600082825260208201905092915050565b6000819050602082019050919050565b600082825260208201905092915050565b6000610b548261095b565b610b5e8185610b38565b9350610b6e818560208601610977565b610b77816109a1565b840191505092915050565b610b8b816108f8565b82525050565b60006040830160008301518482036000860152610bae8282610b49565b9150506020830151610bc36020860182610b82565b508091505092915050565b6000610bda8383610b91565b905092915050565b6000602082019050919050565b6000610bfa82610b0c565b610c048185610b17565b935083602082028501610c1685610b28565b8060005b85811015610c525784840389528151610c338582610bce565b9450610c3e83610be2565b925060208a01995050600181019050610c1a565b50829750879550505050505092915050565b60006080820190508181036000830152610c7e81876109b2565b90508181036020830152610c928186610bef565b9050610ca160408301856109eb565b610cae6060830184610a06565b95945050505050565b6000602082019050610ccc60008301846109eb565b92915050565b60008060408385031215610ce957610ce86108ee565b5b6000610cf785828601610919565b9250506020610d0885828601610919565b9150509250929050565b600080fd5b600080fd5b7f4e487b7100000000000000000000000000000000000000000000000000000000600052604160045260246000fd5b610d54826109a1565b810181811067ffffffffffffffff82111715610d7357610d72610d1c565b5b80604052505050565b6000610d866108e4565b9050610d928282610d4b565b919050565b600067ffffffffffffffff821115610db257610db1610d1c565b5b610dbb826109a1565b9050602081019050919050565b82818337600083830152505050565b6000610dea610de584610d97565b610d7c565b905082815260208101848484011115610e0657610e05610d17565b5b610e11848285610dc8565b509392505050565b600082601f830112610e2e57610e2d610d12565b5b8135610e3e848260208601610dd7565b91505092915050565b600067ffffffffffffffff821115610e6257610e61610d1c565b5b602082029050602081019050919050565b600080fd5b6000610e8b610e8684610e47565b610d7c565b90508083825260208201905060208402830185811115610eae57610ead610e73565b5b835b81811015610ef557803567ffffffffffffffff811115610ed357610ed2610d12565b5b808601610ee08982610e19565b85526020850194505050602081019050610eb0565b5050509392505050565b600082601f830112610f1457610f13610d12565b5b8135610f24848260208601610e78565b91505092915050565b600080600060608486031215610f4657610f456108ee565b5b600084013567ffffffffffffffff811115610f6457610f636108f3565b5b610f7086828701610e19565b935050602084013567ffffffffffffffff811115610f9157610f906108f3565b5b610f9d86828701610eff565b9250506040610fae86828701610919565b9150509250925092565b7f4e487b7100000000000000000000000000000000000000000000000000000000600052602260045260246000fd5b60006002820490506001821680610fff57607f821691505b60208210810361101257611011610fb8565b5b50919050565b7f496e76616c6964206576656e7420494400000000000000000000000000000000600082015250565b600061104e601083610966565b915061105982611018565b602082019050919050565b6000602082019050818103600083015261107d81611041565b9050919050565b7f416c726561647920766f74656400000000000000000000000000000000000000600082015250565b60006110ba600d83610966565b91506110c582611084565b602082019050919050565b600060208201905081810360008301526110e9816110ad565b9050919050565b7f4576656e74206973206e6f742061637469766500000000000000000000000000600082015250565b6000611126601383610966565b9150611131826110f0565b602082019050919050565b6000602082019050818103600083015261115581611119565b9050919050565b7f4576656e742068617320656e6465640000000000000000000000000000000000600082015250565b6000611192600f83610966565b915061119d8261115c565b602082019050919050565b600060208201905081810360008301526111c181611185565b9050919050565b7f496e76616c69642063616e646964617465000000000000000000000000000000600082015250565b60006111fe601183610966565b9150611209826111c8565b602082019050919050565b6000602082019050818103600083015261122d816111f1565b9050919050565b7f4e487b7100000000000000000000000000000000000000000000000000000000600052603260045260246000fd5b7f4e487b7100000000000000000000000000000000000000000000000000000000600052601160045260246000fd5b600061129d826108f8565b91507fffffffffffffffffffffffffffffffffffffffffffffffffffffffffffffffff82036112cf576112ce611263565b5b600182019050919050565b60008190508160005260206000209050919050565b60006020601f8301049050919050565b600082821b905092915050565b60006008830261133c7fffffffffffffffffffffffffffffffffffffffffffffffffffffffffffffffff826112ff565b61134686836112ff565b95508019841693508086168417925050509392505050565b6000819050919050565b600061138361137e611379846108f8565b61135e565b6108f8565b9050919050565b6000819050919050565b61139d83611368565b6113b16113a98261138a565b84845461130c565b825550505050565b600090565b6113c66113b9565b6113d1818484611394565b505050565b5b818110156113f5576113ea6000826113be565b6001810190506113d7565b5050565b601f82111561143a5761140b816112da565b611414846112ef565b81016020851015611423578190505b61143761142f856112ef565b8301826113d6565b50505b505050565b600082821c905092915050565b600061145d6000198460080261143f565b1980831691505092915050565b6000611476838361144c565b9150826002028217905092915050565b61148f8261095b565b67ffffffffffffffff8111156114a8576114a7610d1c565b5b6114b28254610fe7565b6114bd8282856113f9565b600060209050601f8311600181146114f057600084156114de578287015190505b6114e8858261146a565b865550611550565b601f1984166114fe866112da565b60005b8281101561152657848901518255600182019150602085019450602081019050611501565b86831015611543578489015161153f601f89168261144c565b8355505b6001600288020188555050505b505050505050565b6000611563826108f8565b915061156e836108f8565b925082820261157c816108f8565b9150828204841483151761159357611592611263565b5b5092915050565b60006115a5826108f8565b91506115b0836108f8565b92508282019050808211156115c8576115c7611263565b5b92915050565b600060208201905081810360008301526115e881846109b2565b90509291505056fea26469706673582212204daaa8ee55394125434ecd9e91ced166d9fe273d33df5418f16b08843fca698264736f6c634300081c0033","opcodes":"PUSH1 0x80 PUSH1 0x40 MSTORE CALLVALUE DUP1 ISZERO PUSH1 0xF JUMPI PUSH1 0x0 DUP1 REVERT JUMPDEST POP PUSH2 0x1626 DUP1 PUSH2 0x1F PUSH1 0x0 CODECOPY PUSH1 0x0 RETURN INVALID PUSH1 0x80 PUSH1 0x40 MSTORE CALLVALUE DUP1 ISZERO PUSH2 0x10 JUMPI PUSH1 0x0 DUP1 REVERT JUMPDEST POP PUSH1 0x4 CALLDATASIZE LT PUSH2 0x62 JUMPI PUSH1 0x0 CALLDATALOAD PUSH1 0xE0 SHR DUP1 PUSH4 0xB791430 EQ PUSH2 0x67 JUMPI DUP1 PUSH4 0x42545825 EQ PUSH2 0x99 JUMPI DUP1 PUSH4 0x6D1884E0 EQ PUSH2 0xC9 JUMPI DUP1 PUSH4 0x71BE2E4A EQ PUSH2 0xFC JUMPI DUP1 PUSH4 0xB384ABEF EQ PUSH2 0x11A JUMPI DUP1 PUSH4 0xF36CCC5C EQ PUSH2 0x136 JUMPI JUMPDEST PUSH1 0x0 DUP1 REVERT JUMPDEST PUSH2 0x81 PUSH1 0x4 DUP1 CALLDATASIZE SUB DUP2 ADD SWAP1 PUSH2 0x7C SWAP2 SWAP1 PUSH2 0x92E JUMP JUMPDEST PUSH2 0x166 JUMP JUMPDEST PUSH1 0x40 MLOAD PUSH2 0x90 SWAP4 SWAP3 SWAP2 SWAP1 PUSH2 0xA15 JUMP JUMPDEST PUSH1 0x40 MLOAD DUP1 SWAP2 SUB SWAP1 RETURN JUMPDEST PUSH2 0xB3 PUSH1 0x4 DUP1 CALLDATASIZE SUB DUP2 ADD SWAP1 PUSH2 0xAE SWAP2 SWAP1 PUSH2 0xAB1 JUMP JUMPDEST PUSH2 0x225 JUMP JUMPDEST PUSH1 0x40 MLOAD PUSH2 0xC0 SWAP2 SWAP1 PUSH2 0xAF1 JUMP JUMPDEST PUSH1 0x40 MLOAD DUP1 SWAP2 SUB SWAP1 RETURN JUMPDEST PUSH2 0xE3 PUSH1 0x4 DUP1 CALLDATASIZE SUB DUP2 ADD SWAP1 PUSH2 0xDE SWAP2 SWAP1 PUSH2 0x92E JUMP JUMPDEST PUSH2 0x254 JUMP JUMPDEST PUSH1 0x40 MLOAD PUSH2 0xF3 SWAP5 SWAP4 SWAP3 SWAP2 SWAP1 PUSH2 0xC64 JUMP JUMPDEST PUSH1 0x40 MLOAD DUP1 SWAP2 SUB SWAP1 RETURN JUMPDEST PUSH2 0x104 PUSH2 0x471 JUMP JUMPDEST PUSH1 0x40 MLOAD PUSH2 0x111 SWAP2 SWAP1 PUSH2 0xCB7 JUMP JUMPDEST PUSH1 0x40 MLOAD DUP1 SWAP2 SUB SWAP1 RETURN JUMPDEST PUSH2 0x134 PUSH1 0x4 DUP1 CALLDATASIZE SUB DUP2 ADD SWAP1 PUSH2 0x12F SWAP2 SWAP1 PUSH2 0xCD2 JUMP JUMPDEST PUSH2 0x477 JUMP JUMPDEST STOP JUMPDEST PUSH2 0x150 PUSH1 0x4 DUP1 CALLDATASIZE SUB DUP2 ADD SWAP1 PUSH2 0x14B SWAP2 SWAP1 PUSH2 0xF2D JUMP JUMPDEST PUSH2 0x783 JUMP JUMPDEST PUSH1 0x40 MLOAD PUSH2 0x15D SWAP2 SWAP1 PUSH2 0xCB7 JUMP JUMPDEST PUSH1 0x40 MLOAD DUP1 SWAP2 SUB SWAP1 RETURN JUMPDEST PUSH1 0x0 PUSH1 0x20 MSTORE DUP1 PUSH1 0x0 MSTORE PUSH1 0x40 PUSH1 0x0 KECCAK256 PUSH1 0x0 SWAP2 POP SWAP1 POP DUP1 PUSH1 0x0 ADD DUP1 SLOAD PUSH2 0x189 SWAP1 PUSH2 0xFE7 JUMP JUMPDEST DUP1 PUSH1 0x1F ADD PUSH1 0x20 DUP1 SWAP2 DIV MUL PUSH1 0x20 ADD PUSH1 0x40 MLOAD SWAP1 DUP2 ADD PUSH1 0x40 MSTORE DUP1 SWAP3 SWAP2 SWAP1 DUP2 DUP2 MSTORE PUSH1 0x20 ADD DUP3 DUP1 SLOAD PUSH2 0x1B5 SWAP1 PUSH2 0xFE7 JUMP JUMPDEST DUP1 ISZERO PUSH2 0x202 JUMPI DUP1 PUSH1 0x1F LT PUSH2 0x1D7 JUMPI PUSH2 0x100 DUP1 DUP4 SLOAD DIV MUL DUP4 MSTORE SWAP2 PUSH1 0x20 ADD SWAP2 PUSH2 0x202 JUMP JUMPDEST DUP3 ADD SWAP2 SWAP1 PUSH1 0x0 MSTORE PUSH1 0x20 PUSH1 0x0 KECCAK256 SWAP1 JUMPDEST DUP2 SLOAD DUP2 MSTORE SWAP1 PUSH1 0x1 ADD SWAP1 PUSH1 0x20 ADD DUP1 DUP4 GT PUSH2 0x1E5 JUMPI DUP3 SWAP1 SUB PUSH1 0x1F AND DUP3 ADD SWAP2 JUMPDEST POP POP POP POP POP SWAP1 DUP1 PUSH1 0x2 ADD SLOAD SWAP1 DUP1 PUSH1 0x3 ADD PUSH1 0x0 SWAP1 SLOAD SWAP1 PUSH2 0x100 EXP SWAP1 DIV PUSH1 0xFF AND SWAP1 POP DUP4 JUMP JUMPDEST PUSH1 0x2 PUSH1 0x20 MSTORE DUP2 PUSH1 0x0 MSTORE PUSH1 0x40 PUSH1 0x0 KECCAK256 PUSH1 0x20 MSTORE DUP1 PUSH1 0x0 MSTORE PUSH1 0x40 PUSH1 0x0 KECCAK256 PUSH1 0x0 SWAP2 POP SWAP2 POP SWAP1 SLOAD SWAP1 PUSH2 0x100 EXP SWAP1 DIV PUSH1 0xFF AND DUP2 JUMP JUMPDEST PUSH1 0x60 DUP1 PUSH1 0x0 DUP1 PUSH1 0x0 DUP6 GT DUP1 ISZERO PUSH2 0x26C JUMPI POP PUSH1 0x1 SLOAD DUP6 GT ISZERO JUMPDEST PUSH2 0x2AB JUMPI PUSH1 0x40 MLOAD PUSH32 0x8C379A000000000000000000000000000000000000000000000000000000000 DUP2 MSTORE PUSH1 0x4 ADD PUSH2 0x2A2 SWAP1 PUSH2 0x1064 JUMP JUMPDEST PUSH1 0x40 MLOAD DUP1 SWAP2 SUB SWAP1 REVERT JUMPDEST PUSH1 0x0 DUP1 PUSH1 0x0 DUP8 DUP2 MSTORE PUSH1 0x20 ADD SWAP1 DUP2 MSTORE PUSH1 0x20 ADD PUSH1 0x0 KECCAK256 SWAP1 POP DUP1 PUSH1 0x0 ADD DUP2 PUSH1 0x1 ADD DUP3 PUSH1 0x2 ADD SLOAD DUP4 PUSH1 0x3 ADD PUSH1 0x0 SWAP1 SLOAD SWAP1 PUSH2 0x100 EXP SWAP1 DIV PUSH1 0xFF AND DUP4 DUP1 SLOAD PUSH2 0x2EC SWAP1 PUSH2 0xFE7 JUMP JUMPDEST DUP1 PUSH1 0x1F ADD PUSH1 0x20 DUP1 SWAP2 DIV MUL PUSH1 0x20 ADD PUSH1 0x40 MLOAD SWAP1 DUP2 ADD PUSH1 0x40 MSTORE DUP1 SWAP3 SWAP2 SWAP1 DUP2 DUP2 MSTORE PUSH1 0x20 ADD DUP3 DUP1 SLOAD PUSH2 0x318 SWAP1 PUSH2 0xFE7 JUMP JUMPDEST DUP1 ISZERO PUSH2 0x365 JUMPI DUP1 PUSH1 0x1F LT PUSH2 0x33A JUMPI PUSH2 0x100 DUP1 DUP4 SLOAD DIV MUL DUP4 MSTORE SWAP2 PUSH1 0x20 ADD SWAP2 PUSH2 0x365 JUMP JUMPDEST DUP3 ADD SWAP2 SWAP1 PUSH1 0x0 MSTORE PUSH1 0x20 PUSH1 0x0 KECCAK256 SWAP1 JUMPDEST DUP2 SLOAD DUP2 MSTORE SWAP1 PUSH1 0x1 ADD SWAP1 PUSH1 0x20 ADD DUP1 DUP4 GT PUSH2 0x348 JUMPI DUP3 SWAP1 SUB PUSH1 0x1F AND DUP3 ADD SWAP2 JUMPDEST POP POP POP POP POP SWAP4 POP DUP3 DUP1 SLOAD DUP1 PUSH1 0x20 MUL PUSH1 0x20 ADD PUSH1 0x40 MLOAD SWAP1 DUP2 ADD PUSH1 0x40 MSTORE DUP1 SWAP3 SWAP2 SWAP1 DUP2 DUP2 MSTORE PUSH1 0x20 ADD PUSH1 0x0 SWAP1 JUMPDEST DUP3 DUP3 LT ISZERO PUSH2 0x45B JUMPI DUP4 DUP3 SWAP1 PUSH1 0x0 MSTORE PUSH1 0x20 PUSH1 0x0 KECCAK256 SWAP1 PUSH1 0x2 MUL ADD PUSH1 0x40 MLOAD DUP1 PUSH1 0x40 ADD PUSH1 0x40 MSTORE SWAP1 DUP2 PUSH1 0x0 DUP3 ADD DUP1 SLOAD PUSH2 0x3C0 SWAP1 PUSH2 0xFE7 JUMP JUMPDEST DUP1 PUSH1 0x1F ADD PUSH1 0x20 DUP1 SWAP2 DIV MUL PUSH1 0x20 ADD PUSH1 0x40 MLOAD SWAP1 DUP2 ADD PUSH1 0x40 MSTORE DUP1 SWAP3 SWAP2 SWAP1 DUP2 DUP2 MSTORE PUSH1 0x20 ADD DUP3 DUP1 SLOAD PUSH2 0x3EC SWAP1 PUSH2 0xFE7 JUMP JUMPDEST DUP1 ISZERO PUSH2 0x439 JUMPI DUP1 PUSH1 0x1F LT PUSH2 0x40E JUMPI PUSH2 0x100 DUP1 DUP4 SLOAD DIV MUL DUP4 MSTORE SWAP2 PUSH1 0x20 ADD SWAP2 PUSH2 0x439 JUMP JUMPDEST DUP3 ADD SWAP2 SWAP1 PUSH1 0x0 MSTORE PUSH1 0x20 PUSH1 0x0 KECCAK256 SWAP1 JUMPDEST DUP2 SLOAD DUP2 MSTORE SWAP1 PUSH1 0x1 ADD SWAP1 PUSH1 0x20 ADD DUP1 DUP4 GT PUSH2 0x41C JUMPI DUP3 SWAP1 SUB PUSH1 0x1F AND DUP3 ADD SWAP2 JUMPDEST POP POP POP POP POP DUP2 MSTORE PUSH1 0x20 ADD PUSH1 0x1 DUP3 ADD SLOAD DUP2 MSTORE POP POP DUP2 MSTORE PUSH1 0x20 ADD SWAP1 PUSH1 0x1 ADD SWAP1 PUSH2 0x38D JUMP JUMPDEST POP POP POP POP SWAP3 POP SWAP5 POP SWAP5 POP SWAP5 POP SWAP5 POP POP SWAP2 SWAP4 POP SWAP2 SWAP4 JUMP JUMPDEST PUSH1 0x1 SLOAD DUP2 JUMP JUMPDEST PUSH1 0x0 DUP3 GT DUP1 ISZERO PUSH2 0x489 JUMPI POP PUSH1 0x1 SLOAD DUP3 GT ISZERO JUMPDEST PUSH2 0x4C8 JUMPI PUSH1 0x40 MLOAD PUSH32 0x8C379A000000000000000000000000000000000000000000000000000000000 DUP2 MSTORE PUSH1 0x4 ADD PUSH2 0x4BF SWAP1 PUSH2 0x1064 JUMP JUMPDEST PUSH1 0x40 MLOAD DUP1 SWAP2 SUB SWAP1 REVERT JUMPDEST PUSH1 0x2 PUSH1 0x0 CALLER PUSH20 0xFFFFFFFFFFFFFFFFFFFFFFFFFFFFFFFFFFFFFFFF AND PUSH20 0xFFFFFFFFFFFFFFFFFFFFFFFFFFFFFFFFFFFFFFFF AND DUP2 MSTORE PUSH1 0x20 ADD SWAP1 DUP2 MSTORE PUSH1 0x20 ADD PUSH1 0x0 KECCAK256 PUSH1 0x0 DUP4 DUP2 MSTORE PUSH1 0x20 ADD SWAP1 DUP2 MSTORE PUSH1 0x20 ADD PUSH1 0x0 KECCAK256 PUSH1 0x0 SWAP1 SLOAD SWAP1 PUSH2 0x100 EXP SWAP1 DIV PUSH1 0xFF AND ISZERO PUSH2 0x566 JUMPI PUSH1 0x40 MLOAD PUSH32 0x8C379A000000000000000000000000000000000000000000000000000000000 DUP2 MSTORE PUSH1 0x4 ADD PUSH2 0x55D SWAP1 PUSH2 0x10D0 JUMP JUMPDEST PUSH1 0x40 MLOAD DUP1 SWAP2 SUB SWAP1 REVERT JUMPDEST PUSH1 0x0 DUP1 DUP4 DUP2 MSTORE PUSH1 0x20 ADD SWAP1 DUP2 MSTORE PUSH1 0x20 ADD PUSH1 0x0 KECCAK256 PUSH1 0x3 ADD PUSH1 0x0 SWAP1 SLOAD SWAP1 PUSH2 0x100 EXP SWAP1 DIV PUSH1 0xFF AND PUSH2 0x5C8 JUMPI PUSH1 0x40 MLOAD PUSH32 0x8C379A000000000000000000000000000000000000000000000000000000000 DUP2 MSTORE PUSH1 0x4 ADD PUSH2 0x5BF SWAP1 PUSH2 0x113C JUMP JUMPDEST PUSH1 0x40 MLOAD DUP1 SWAP2 SUB SWAP1 REVERT JUMPDEST PUSH1 0x0 DUP1 DUP4 DUP2 MSTORE PUSH1 0x20 ADD SWAP1 DUP2 MSTORE PUSH1 0x20 ADD PUSH1 0x0 KECCAK256 PUSH1 0x2 ADD SLOAD TIMESTAMP LT PUSH2 0x61F JUMPI PUSH1 0x40 MLOAD PUSH32 0x8C379A000000000000000000000000000000000000000000000000000000000 DUP2 MSTORE PUSH1 0x4 ADD PUSH2 0x616 SWAP1 PUSH2 0x11A8 JUMP JUMPDEST PUSH1 0x40 MLOAD DUP1 SWAP2 SUB SWAP1 REVERT JUMPDEST PUSH1 0x0 DUP1 DUP4 DUP2 MSTORE PUSH1 0x20 ADD SWAP1 DUP2 MSTORE PUSH1 0x20 ADD PUSH1 0x0 KECCAK256 PUSH1 0x1 ADD DUP1 SLOAD SWAP1 POP DUP2 LT PUSH2 0x679 JUMPI PUSH1 0x40 MLOAD PUSH32 0x8C379A000000000000000000000000000000000000000000000000000000000 DUP2 MSTORE PUSH1 0x4 ADD PUSH2 0x670 SWAP1 PUSH2 0x1214 JUMP JUMPDEST PUSH1 0x40 MLOAD DUP1 SWAP2 SUB SWAP1 REVERT JUMPDEST PUSH1 0x0 DUP1 DUP4 DUP2 MSTORE PUSH1 0x20 ADD SWAP1 DUP2 MSTORE PUSH1 0x20 ADD PUSH1 0x0 KECCAK256 PUSH1 0x1 ADD DUP2 DUP2 SLOAD DUP2 LT PUSH2 0x6A0 JUMPI PUSH2 0x69F PUSH2 0x1234 JUMP JUMPDEST JUMPDEST SWAP1 PUSH1 0x0 MSTORE PUSH1 0x20 PUSH1 0x0 KECCAK256 SWAP1 PUSH1 0x2 MUL ADD PUSH1 0x1 ADD PUSH1 0x0 DUP2 SLOAD DUP1 SWAP3 SWAP2 SWAP1 PUSH2 0x6C2 SWAP1 PUSH2 0x1292 JUMP JUMPDEST SWAP2 SWAP1 POP SSTORE POP PUSH1 0x1 PUSH1 0x2 PUSH1 0x0 CALLER PUSH20 0xFFFFFFFFFFFFFFFFFFFFFFFFFFFFFFFFFFFFFFFF AND PUSH20 0xFFFFFFFFFFFFFFFFFFFFFFFFFFFFFFFFFFFFFFFF AND DUP2 MSTORE PUSH1 0x20 ADD SWAP1 DUP2 MSTORE PUSH1 0x20 ADD PUSH1 0x0 KECCAK256 PUSH1 0x0 DUP5 DUP2 MSTORE PUSH1 0x20 ADD SWAP1 DUP2 MSTORE PUSH1 0x20 ADD PUSH1 0x0 KECCAK256 PUSH1 0x0 PUSH2 0x100 EXP DUP2 SLOAD DUP2 PUSH1 0xFF MUL NOT AND SWAP1 DUP4 ISZERO ISZERO MUL OR SWAP1 SSTORE POP CALLER PUSH20 0xFFFFFFFFFFFFFFFFFFFFFFFFFFFFFFFFFFFFFFFF AND DUP3 PUSH32 0x2ACCE567DECA3AABF56327ADBB4524BD5318936EAEFA69E3A5208FFDA0CFEC09 DUP4 PUSH1 0x40 MLOAD PUSH2 0x777 SWAP2 SWAP1 PUSH2 0xCB7 JUMP JUMPDEST PUSH1 0x40 MLOAD DUP1 SWAP2 SUB SWAP1 LOG3 POP POP JUMP JUMPDEST PUSH1 0x0 PUSH1 0x1 PUSH1 0x0 DUP2 SLOAD DUP1 SWAP3 SWAP2 SWAP1 PUSH2 0x798 SWAP1 PUSH2 0x1292 JUMP JUMPDEST SWAP2 SWAP1 POP SSTORE POP PUSH1 0x0 DUP1 PUSH1 0x0 PUSH1 0x1 SLOAD DUP2 MSTORE PUSH1 0x20 ADD SWAP1 DUP2 MSTORE PUSH1 0x20 ADD PUSH1 0x0 KECCAK256 SWAP1 POP DUP5 DUP2 PUSH1 0x0 ADD SWAP1 DUP2 PUSH2 0x7C6 SWAP2 SWAP1 PUSH2 0x1486 JUMP JUMPDEST POP PUSH1 0x3C DUP4 PUSH2 0x7D4 SWAP2 SWAP1 PUSH2 0x1558 JUMP JUMPDEST TIMESTAMP PUSH2 0x7DF SWAP2 SWAP1 PUSH2 0x159A JUMP JUMPDEST DUP2 PUSH1 0x2 ADD DUP2 SWAP1 SSTORE POP PUSH1 0x1 DUP2 PUSH1 0x3 ADD PUSH1 0x0 PUSH2 0x100 EXP DUP2 SLOAD DUP2 PUSH1 0xFF MUL NOT AND SWAP1 DUP4 ISZERO ISZERO MUL OR SWAP1 SSTORE POP PUSH1 0x0 JUMPDEST DUP5 MLOAD DUP2 LT ISZERO PUSH2 0x89C JUMPI DUP2 PUSH1 0x1 ADD PUSH1 0x40 MLOAD DUP1 PUSH1 0x40 ADD PUSH1 0x40 MSTORE DUP1 DUP8 DUP5 DUP2 MLOAD DUP2 LT PUSH2 0x832 JUMPI PUSH2 0x831 PUSH2 0x1234 JUMP JUMPDEST JUMPDEST PUSH1 0x20 MUL PUSH1 0x20 ADD ADD MLOAD DUP2 MSTORE PUSH1 0x20 ADD PUSH1 0x0 DUP2 MSTORE POP SWAP1 DUP1 PUSH1 0x1 DUP2 SLOAD ADD DUP1 DUP3 SSTORE DUP1 SWAP2 POP POP PUSH1 0x1 SWAP1 SUB SWAP1 PUSH1 0x0 MSTORE PUSH1 0x20 PUSH1 0x0 KECCAK256 SWAP1 PUSH1 0x2 MUL ADD PUSH1 0x0 SWAP1 SWAP2 SWAP1 SWAP2 SWAP1 SWAP2 POP PUSH1 0x0 DUP3 ADD MLOAD DUP2 PUSH1 0x0 ADD SWAP1 DUP2 PUSH2 0x882 SWAP2 SWAP1 PUSH2 0x1486 JUMP JUMPDEST POP PUSH1 0x20 DUP3 ADD MLOAD DUP2 PUSH1 0x1 ADD SSTORE POP POP DUP1 DUP1 PUSH1 0x1 ADD SWAP2 POP POP PUSH2 0x807 JUMP JUMPDEST POP PUSH1 0x1 SLOAD PUSH32 0x9CE3D6DB707BCA4BA0EABED8FBA1E2C013A1C0BC1132A764170A7854D198C73D DUP7 PUSH1 0x40 MLOAD PUSH2 0x8CF SWAP2 SWAP1 PUSH2 0x15CE JUMP JUMPDEST PUSH1 0x40 MLOAD DUP1 SWAP2 SUB SWAP1 LOG2 PUSH1 0x1 SLOAD SWAP2 POP POP SWAP4 SWAP3 POP POP POP JUMP JUMPDEST PUSH1 0x0 PUSH1 0x40 MLOAD SWAP1 POP SWAP1 JUMP JUMPDEST PUSH1 0x0 DUP1 REVERT JUMPDEST PUSH1 0x0 DUP1 REVERT JUMPDEST PUSH1 0x0 DUP2 SWAP1 POP SWAP2 SWAP1 POP JUMP JUMPDEST PUSH2 0x90B DUP2 PUSH2 0x8F8 JUMP JUMPDEST DUP2 EQ PUSH2 0x916 JUMPI PUSH1 0x0 DUP1 REVERT JUMPDEST POP JUMP JUMPDEST PUSH1 0x0 DUP2 CALLDATALOAD SWAP1 POP PUSH2 0x928 DUP2 PUSH2 0x902 JUMP JUMPDEST SWAP3 SWAP2 POP POP JUMP JUMPDEST PUSH1 0x0 PUSH1 0x20 DUP3 DUP5 SUB SLT ISZERO PUSH2 0x944 JUMPI PUSH2 0x943 PUSH2 0x8EE JUMP JUMPDEST JUMPDEST PUSH1 0x0 PUSH2 0x952 DUP5 DUP3 DUP6 ADD PUSH2 0x919 JUMP JUMPDEST SWAP2 POP POP SWAP3 SWAP2 POP POP JUMP JUMPDEST PUSH1 0x0 DUP2 MLOAD SWAP1 POP SWAP2 SWAP1 POP JUMP JUMPDEST PUSH1 0x0 DUP3 DUP3 MSTORE PUSH1 0x20 DUP3 ADD SWAP1 POP SWAP3 SWAP2 POP POP JUMP JUMPDEST PUSH1 0x0 JUMPDEST DUP4 DUP2 LT ISZERO PUSH2 0x995 JUMPI DUP1 DUP3 ADD MLOAD DUP2 DUP5 ADD MSTORE PUSH1 0x20 DUP2 ADD SWAP1 POP PUSH2 0x97A JUMP JUMPDEST PUSH1 0x0 DUP5 DUP5 ADD MSTORE POP POP POP POP JUMP JUMPDEST PUSH1 0x0 PUSH1 0x1F NOT PUSH1 0x1F DUP4 ADD AND SWAP1 POP SWAP2 SWAP1 POP JUMP JUMPDEST PUSH1 0x0 PUSH2 0x9BD DUP3 PUSH2 0x95B JUMP JUMPDEST PUSH2 0x9C7 DUP2 DUP6 PUSH2 0x966 JUMP JUMPDEST SWAP4 POP PUSH2 0x9D7 DUP2 DUP6 PUSH1 0x20 DUP7 ADD PUSH2 0x977 JUMP JUMPDEST PUSH2 0x9E0 DUP2 PUSH2 0x9A1 JUMP JUMPDEST DUP5 ADD SWAP2 POP POP SWAP3 SWAP2 POP POP JUMP JUMPDEST PUSH2 0x9F4 DUP2 PUSH2 0x8F8 JUMP JUMPDEST DUP3 MSTORE POP POP JUMP JUMPDEST PUSH1 0x0 DUP2 ISZERO ISZERO SWAP1 POP SWAP2 SWAP1 POP JUMP JUMPDEST PUSH2 0xA0F DUP2 PUSH2 0x9FA JUMP JUMPDEST DUP3 MSTORE POP POP JUMP JUMPDEST PUSH1 0x0 PUSH1 0x60 DUP3 ADD SWAP1 POP DUP2 DUP2 SUB PUSH1 0x0 DUP4 ADD MSTORE PUSH2 0xA2F DUP2 DUP7 PUSH2 0x9B2 JUMP JUMPDEST SWAP1 POP PUSH2 0xA3E PUSH1 0x20 DUP4 ADD DUP6 PUSH2 0x9EB JUMP JUMPDEST PUSH2 0xA4B PUSH1 0x40 DUP4 ADD DUP5 PUSH2 0xA06 JUMP JUMPDEST SWAP5 SWAP4 POP POP POP POP JUMP JUMPDEST PUSH1 0x0 PUSH20 0xFFFFFFFFFFFFFFFFFFFFFFFFFFFFFFFFFFFFFFFF DUP3 AND SWAP1 POP SWAP2 SWAP1 POP JUMP JUMPDEST PUSH1 0x0 PUSH2 0xA7E DUP3 PUSH2 0xA53 JUMP JUMPDEST SWAP1 POP SWAP2 SWAP1 POP JUMP JUMPDEST PUSH2 0xA8E DUP2 PUSH2 0xA73 JUMP JUMPDEST DUP2 EQ PUSH2 0xA99 JUMPI PUSH1 0x0 DUP1 REVERT JUMPDEST POP JUMP JUMPDEST PUSH1 0x0 DUP2 CALLDATALOAD SWAP1 POP PUSH2 0xAAB DUP2 PUSH2 0xA85 JUMP JUMPDEST SWAP3 SWAP2 POP POP JUMP JUMPDEST PUSH1 0x0 DUP1 PUSH1 0x40 DUP4 DUP6 SUB SLT ISZERO PUSH2 0xAC8 JUMPI PUSH2 0xAC7 PUSH2 0x8EE JUMP JUMPDEST JUMPDEST PUSH1 0x0 PUSH2 0xAD6 DUP6 DUP3 DUP7 ADD PUSH2 0xA9C JUMP JUMPDEST SWAP3 POP POP PUSH1 0x20 PUSH2 0xAE7 DUP6 DUP3 DUP7 ADD PUSH2 0x919 JUMP JUMPDEST SWAP2 POP POP SWAP3 POP SWAP3 SWAP1 POP JUMP JUMPDEST PUSH1 0x0 PUSH1 0x20 DUP3 ADD SWAP1 POP PUSH2 0xB06 PUSH1 0x0 DUP4 ADD DUP5 PUSH2 0xA06 JUMP JUMPDEST SWAP3 SWAP2 POP POP JUMP JUMPDEST PUSH1 0x0 DUP2 MLOAD SWAP1 POP SWAP2 SWAP1 POP JUMP JUMPDEST PUSH1 0x0 DUP3 DUP3 MSTORE PUSH1 0x20 DUP3 ADD SWAP1 POP SWAP3 SWAP2 POP POP JUMP JUMPDEST PUSH1 0x0 DUP2 SWAP1 POP PUSH1 0x20 DUP3 ADD SWAP1 POP SWAP2 SWAP1 POP JUMP JUMPDEST PUSH1 0x0 DUP3 DUP3 MSTORE PUSH1 0x20 DUP3 ADD SWAP1 POP SWAP3 SWAP2 POP POP JUMP JUMPDEST PUSH1 0x0 PUSH2 0xB54 DUP3 PUSH2 0x95B JUMP JUMPDEST PUSH2 0xB5E DUP2 DUP6 PUSH2 0xB38 JUMP JUMPDEST SWAP4 POP PUSH2 0xB6E DUP2 DUP6 PUSH1 0x20 DUP7 ADD PUSH2 0x977 JUMP JUMPDEST PUSH2 0xB77 DUP2 PUSH2 0x9A1 JUMP JUMPDEST DUP5 ADD SWAP2 POP POP SWAP3 SWAP2 POP POP JUMP JUMPDEST PUSH2 0xB8B DUP2 PUSH2 0x8F8 JUMP JUMPDEST DUP3 MSTORE POP POP JUMP JUMPDEST PUSH1 0x0 PUSH1 0x40 DUP4 ADD PUSH1 0x0 DUP4 ADD MLOAD DUP5 DUP3 SUB PUSH1 0x0 DUP7 ADD MSTORE PUSH2 0xBAE DUP3 DUP3 PUSH2 0xB49 JUMP JUMPDEST SWAP2 POP POP PUSH1 0x20 DUP4 ADD MLOAD PUSH2 0xBC3 PUSH1 0x20 DUP7 ADD DUP3 PUSH2 0xB82 JUMP JUMPDEST POP DUP1 SWAP2 POP POP SWAP3 SWAP2 POP POP JUMP JUMPDEST PUSH1 0x0 PUSH2 0xBDA DUP4 DUP4 PUSH2 0xB91 JUMP JUMPDEST SWAP1 POP SWAP3 SWAP2 POP POP JUMP JUMPDEST PUSH1 0x0 PUSH1 0x20 DUP3 ADD SWAP1 POP SWAP2 SWAP1 POP JUMP JUMPDEST PUSH1 0x0 PUSH2 0xBFA DUP3 PUSH2 0xB0C JUMP JUMPDEST PUSH2 0xC04 DUP2 DUP6 PUSH2 0xB17 JUMP JUMPDEST SWAP4 POP DUP4 PUSH1 0x20 DUP3 MUL DUP6 ADD PUSH2 0xC16 DUP6 PUSH2 0xB28 JUMP JUMPDEST DUP1 PUSH1 0x0 JUMPDEST DUP6 DUP2 LT ISZERO PUSH2 0xC52 JUMPI DUP5 DUP5 SUB DUP10 MSTORE DUP2 MLOAD PUSH2 0xC33 DUP6 DUP3 PUSH2 0xBCE JUMP JUMPDEST SWAP5 POP PUSH2 0xC3E DUP4 PUSH2 0xBE2 JUMP JUMPDEST SWAP3 POP PUSH1 0x20 DUP11 ADD SWAP10 POP POP PUSH1 0x1 DUP2 ADD SWAP1 POP PUSH2 0xC1A JUMP JUMPDEST POP DUP3 SWAP8 POP DUP8 SWAP6 POP POP POP POP POP POP SWAP3 SWAP2 POP POP JUMP JUMPDEST PUSH1 0x0 PUSH1 0x80 DUP3 ADD SWAP1 POP DUP2 DUP2 SUB PUSH1 0x0 DUP4 ADD MSTORE PUSH2 0xC7E DUP2 DUP8 PUSH2 0x9B2 JUMP JUMPDEST SWAP1 POP DUP2 DUP2 SUB PUSH1 0x20 DUP4 ADD MSTORE PUSH2 0xC92 DUP2 DUP7 PUSH2 0xBEF JUMP JUMPDEST SWAP1 POP PUSH2 0xCA1 PUSH1 0x40 DUP4 ADD DUP6 PUSH2 0x9EB JUMP JUMPDEST PUSH2 0xCAE PUSH1 0x60 DUP4 ADD DUP5 PUSH2 0xA06 JUMP JUMPDEST SWAP6 SWAP5 POP POP POP POP POP JUMP JUMPDEST PUSH1 0x0 PUSH1 0x20 DUP3 ADD SWAP1 POP PUSH2 0xCCC PUSH1 0x0 DUP4 ADD DUP5 PUSH2 0x9EB JUMP JUMPDEST SWAP3 SWAP2 POP POP JUMP JUMPDEST PUSH1 0x0 DUP1 PUSH1 0x40 DUP4 DUP6 SUB SLT ISZERO PUSH2 0xCE9 JUMPI PUSH2 0xCE8 PUSH2 0x8EE JUMP JUMPDEST JUMPDEST PUSH1 0x0 PUSH2 0xCF7 DUP6 DUP3 DUP7 ADD PUSH2 0x919 JUMP JUMPDEST SWAP3 POP POP PUSH1 0x20 PUSH2 0xD08 DUP6 DUP3 DUP7 ADD PUSH2 0x919 JUMP JUMPDEST SWAP2 POP POP SWAP3 POP SWAP3 SWAP1 POP JUMP JUMPDEST PUSH1 0x0 DUP1 REVERT JUMPDEST PUSH1 0x0 DUP1 REVERT JUMPDEST PUSH32 0x4E487B7100000000000000000000000000000000000000000000000000000000 PUSH1 0x0 MSTORE PUSH1 0x41 PUSH1 0x4 MSTORE PUSH1 0x24 PUSH1 0x0 REVERT JUMPDEST PUSH2 0xD54 DUP3 PUSH2 0x9A1 JUMP JUMPDEST DUP2 ADD DUP2 DUP2 LT PUSH8 0xFFFFFFFFFFFFFFFF DUP3 GT OR ISZERO PUSH2 0xD73 JUMPI PUSH2 0xD72 PUSH2 0xD1C JUMP JUMPDEST JUMPDEST DUP1 PUSH1 0x40 MSTORE POP POP POP JUMP JUMPDEST PUSH1 0x0 PUSH2 0xD86 PUSH2 0x8E4 JUMP JUMPDEST SWAP1 POP PUSH2 0xD92 DUP3 DUP3 PUSH2 0xD4B JUMP JUMPDEST SWAP2 SWAP1 POP JUMP JUMPDEST PUSH1 0x0 PUSH8 0xFFFFFFFFFFFFFFFF DUP3 GT ISZERO PUSH2 0xDB2 JUMPI PUSH2 0xDB1 PUSH2 0xD1C JUMP JUMPDEST JUMPDEST PUSH2 0xDBB DUP3 PUSH2 0x9A1 JUMP JUMPDEST SWAP1 POP PUSH1 0x20 DUP2 ADD SWAP1 POP SWAP2 SWAP1 POP JUMP JUMPDEST DUP3 DUP2 DUP4 CALLDATACOPY PUSH1 0x0 DUP4 DUP4 ADD MSTORE POP POP POP JUMP JUMPDEST PUSH1 0x0 PUSH2 0xDEA PUSH2 0xDE5 DUP5 PUSH2 0xD97 JUMP JUMPDEST PUSH2 0xD7C JUMP JUMPDEST SWAP1 POP DUP3 DUP2 MSTORE PUSH1 0x20 DUP2 ADD DUP5 DUP5 DUP5 ADD GT ISZERO PUSH2 0xE06 JUMPI PUSH2 0xE05 PUSH2 0xD17 JUMP JUMPDEST JUMPDEST PUSH2 0xE11 DUP5 DUP3 DUP6 PUSH2 0xDC8 JUMP JUMPDEST POP SWAP4 SWAP3 POP POP POP JUMP JUMPDEST PUSH1 0x0 DUP3 PUSH1 0x1F DUP4 ADD SLT PUSH2 0xE2E JUMPI PUSH2 0xE2D PUSH2 0xD12 JUMP JUMPDEST JUMPDEST DUP2 CALLDATALOAD PUSH2 0xE3E DUP5 DUP3 PUSH1 0x20 DUP7 ADD PUSH2 0xDD7 JUMP JUMPDEST SWAP2 POP POP SWAP3 SWAP2 POP POP JUMP JUMPDEST PUSH1 0x0 PUSH8 0xFFFFFFFFFFFFFFFF DUP3 GT ISZERO PUSH2 0xE62 JUMPI PUSH2 0xE61 PUSH2 0xD1C JUMP JUMPDEST JUMPDEST PUSH1 0x20 DUP3 MUL SWAP1 POP PUSH1 0x20 DUP2 ADD SWAP1 POP SWAP2 SWAP1 POP JUMP JUMPDEST PUSH1 0x0 DUP1 REVERT JUMPDEST PUSH1 0x0 PUSH2 0xE8B PUSH2 0xE86 DUP5 PUSH2 0xE47 JUMP JUMPDEST PUSH2 0xD7C JUMP JUMPDEST SWAP1 POP DUP1 DUP4 DUP3 MSTORE PUSH1 0x20 DUP3 ADD SWAP1 POP PUSH1 0x20 DUP5 MUL DUP4 ADD DUP6 DUP2 GT ISZERO PUSH2 0xEAE JUMPI PUSH2 0xEAD PUSH2 0xE73 JUMP JUMPDEST JUMPDEST DUP4 JUMPDEST DUP2 DUP2 LT ISZERO PUSH2 0xEF5 JUMPI DUP1 CALLDATALOAD PUSH8 0xFFFFFFFFFFFFFFFF DUP2 GT ISZERO PUSH2 0xED3 JUMPI PUSH2 0xED2 PUSH2 0xD12 JUMP JUMPDEST JUMPDEST DUP1 DUP7 ADD PUSH2 0xEE0 DUP10 DUP3 PUSH2 0xE19 JUMP JUMPDEST DUP6 MSTORE PUSH1 0x20 DUP6 ADD SWAP5 POP POP POP PUSH1 0x20 DUP2 ADD SWAP1 POP PUSH2 0xEB0 JUMP JUMPDEST POP POP POP SWAP4 SWAP3 POP POP POP JUMP JUMPDEST PUSH1 0x0 DUP3 PUSH1 0x1F DUP4 ADD SLT PUSH2 0xF14 JUMPI PUSH2 0xF13 PUSH2 0xD12 JUMP JUMPDEST JUMPDEST DUP2 CALLDATALOAD PUSH2 0xF24 DUP5 DUP3 PUSH1 0x20 DUP7 ADD PUSH2 0xE78 JUMP JUMPDEST SWAP2 POP POP SWAP3 SWAP2 POP POP JUMP JUMPDEST PUSH1 0x0 DUP1 PUSH1 0x0 PUSH1 0x60 DUP5 DUP7 SUB SLT ISZERO PUSH2 0xF46 JUMPI PUSH2 0xF45 PUSH2 0x8EE JUMP JUMPDEST JUMPDEST PUSH1 0x0 DUP5 ADD CALLDATALOAD PUSH8 0xFFFFFFFFFFFFFFFF DUP2 GT ISZERO PUSH2 0xF64 JUMPI PUSH2 0xF63 PUSH2 0x8F3 JUMP JUMPDEST JUMPDEST PUSH2 0xF70 DUP7 DUP3 DUP8 ADD PUSH2 0xE19 JUMP JUMPDEST SWAP4 POP POP PUSH1 0x20 DUP5 ADD CALLDATALOAD PUSH8 0xFFFFFFFFFFFFFFFF DUP2 GT ISZERO PUSH2 0xF91 JUMPI PUSH2 0xF90 PUSH2 0x8F3 JUMP JUMPDEST JUMPDEST PUSH2 0xF9D DUP7 DUP3 DUP8 ADD PUSH2 0xEFF JUMP JUMPDEST SWAP3 POP POP PUSH1 0x40 PUSH2 0xFAE DUP7 DUP3 DUP8 ADD PUSH2 0x919 JUMP JUMPDEST SWAP2 POP POP SWAP3 POP SWAP3 POP SWAP3 JUMP JUMPDEST PUSH32 0x4E487B7100000000000000000000000000000000000000000000000000000000 PUSH1 0x0 MSTORE PUSH1 0x22 PUSH1 0x4 MSTORE PUSH1 0x24 PUSH1 0x0 REVERT JUMPDEST PUSH1 0x0 PUSH1 0x2 DUP3 DIV SWAP1 POP PUSH1 0x1 DUP3 AND DUP1 PUSH2 0xFFF JUMPI PUSH1 0x7F DUP3 AND SWAP2 POP JUMPDEST PUSH1 0x20 DUP3 LT DUP2 SUB PUSH2 0x1012 JUMPI PUSH2 0x1011 PUSH2 0xFB8 JUMP JUMPDEST JUMPDEST POP SWAP2 SWAP1 POP JUMP JUMPDEST PUSH32 0x496E76616C6964206576656E7420494400000000000000000000000000000000 PUSH1 0x0 DUP3 ADD MSTORE POP JUMP JUMPDEST PUSH1 0x0 PUSH2 0x104E PUSH1 0x10 DUP4 PUSH2 0x966 JUMP JUMPDEST SWAP2 POP PUSH2 0x1059 DUP3 PUSH2 0x1018 JUMP JUMPDEST PUSH1 0x20 DUP3 ADD SWAP1 POP SWAP2 SWAP1 POP JUMP JUMPDEST PUSH1 0x0 PUSH1 0x20 DUP3 ADD SWAP1 POP DUP2 DUP2 SUB PUSH1 0x0 DUP4 ADD MSTORE PUSH2 0x107D DUP2 PUSH2 0x1041 JUMP JUMPDEST SWAP1 POP SWAP2 SWAP1 POP JUMP JUMPDEST PUSH32 0x416C726561647920766F74656400000000000000000000000000000000000000 PUSH1 0x0 DUP3 ADD MSTORE POP JUMP JUMPDEST PUSH1 0x0 PUSH2 0x10BA PUSH1 0xD DUP4 PUSH2 0x966 JUMP JUMPDEST SWAP2 POP PUSH2 0x10C5 DUP3 PUSH2 0x1084 JUMP JUMPDEST PUSH1 0x20 DUP3 ADD SWAP1 POP SWAP2 SWAP1 POP JUMP JUMPDEST PUSH1 0x0 PUSH1 0x20 DUP3 ADD SWAP1 POP DUP2 DUP2 SUB PUSH1 0x0 DUP4 ADD MSTORE PUSH2 0x10E9 DUP2 PUSH2 0x10AD JUMP JUMPDEST SWAP1 POP SWAP2 SWAP1 POP JUMP JUMPDEST PUSH32 0x4576656E74206973206E6F742061637469766500000000000000000000000000 PUSH1 0x0 DUP3 ADD MSTORE POP JUMP JUMPDEST PUSH1 0x0 PUSH2 0x1126 PUSH1 0x13 DUP4 PUSH2 0x966 JUMP JUMPDEST SWAP2 POP PUSH2 0x1131 DUP3 PUSH2 0x10F0 JUMP JUMPDEST PUSH1 0x20 DUP3 ADD SWAP1 POP SWAP2 SWAP1 POP JUMP JUMPDEST PUSH1 0x0 PUSH1 0x20 DUP3 ADD SWAP1 POP DUP2 DUP2 SUB PUSH1 0x0 DUP4 ADD MSTORE PUSH2 0x1155 DUP2 PUSH2 0x1119 JUMP JUMPDEST SWAP1 POP SWAP2 SWAP1 POP JUMP JUMPDEST PUSH32 0x4576656E742068617320656E6465640000000000000000000000000000000000 PUSH1 0x0 DUP3 ADD MSTORE POP JUMP JUMPDEST PUSH1 0x0 PUSH2 0x1192 PUSH1 0xF DUP4 PUSH2 0x966 JUMP JUMPDEST SWAP2 POP PUSH2 0x119D DUP3 PUSH2 0x115C JUMP JUMPDEST PUSH1 0x20 DUP3 ADD SWAP1 POP SWAP2 SWAP1 POP JUMP JUMPDEST PUSH1 0x0 PUSH1 0x20 DUP3 ADD SWAP1 POP DUP2 DUP2 SUB PUSH1 0x0 DUP4 ADD MSTORE PUSH2 0x11C1 DUP2 PUSH2 0x1185 JUMP JUMPDEST SWAP1 POP SWAP2 SWAP1 POP JUMP JUMPDEST PUSH32 0x496E76616C69642063616E646964617465000000000000000000000000000000 PUSH1 0x0 DUP3 ADD MSTORE POP JUMP JUMPDEST PUSH1 0x0 PUSH2 0x11FE PUSH1 0x11 DUP4 PUSH2 0x966 JUMP JUMPDEST SWAP2 POP PUSH2 0x1209 DUP3 PUSH2 0x11C8 JUMP JUMPDEST PUSH1 0x20 DUP3 ADD SWAP1 POP SWAP2 SWAP1 POP JUMP JUMPDEST PUSH1 0x0 PUSH1 0x20 DUP3 ADD SWAP1 POP DUP2 DUP2 SUB PUSH1 0x0 DUP4 ADD MSTORE PUSH2 0x122D DUP2 PUSH2 0x11F1 JUMP JUMPDEST SWAP1 POP SWAP2 SWAP1 POP JUMP JUMPDEST PUSH32 0x4E487B7100000000000000000000000000000000000000000000000000000000 PUSH1 0x0 MSTORE PUSH1 0x32 PUSH1 0x4 MSTORE PUSH1 0x24 PUSH1 0x0 REVERT JUMPDEST PUSH32 0x4E487B7100000000000000000000000000000000000000000000000000000000 PUSH1 0x0 MSTORE PUSH1 0x11 PUSH1 0x4 MSTORE PUSH1 0x24 PUSH1 0x0 REVERT JUMPDEST PUSH1 0x0 PUSH2 0x129D DUP3 PUSH2 0x8F8 JUMP JUMPDEST SWAP2 POP PUSH32 0xFFFFFFFFFFFFFFFFFFFFFFFFFFFFFFFFFFFFFFFFFFFFFFFFFFFFFFFFFFFFFFFF DUP3 SUB PUSH2 0x12CF JUMPI PUSH2 0x12CE PUSH2 0x1263 JUMP JUMPDEST JUMPDEST PUSH1 0x1 DUP3 ADD SWAP1 POP SWAP2 SWAP1 POP JUMP JUMPDEST PUSH1 0x0 DUP2 SWAP1 POP DUP2 PUSH1 0x0 MSTORE PUSH1 0x20 PUSH1 0x0 KECCAK256 SWAP1 POP SWAP2 SWAP1 POP JUMP JUMPDEST PUSH1 0x0 PUSH1 0x20 PUSH1 0x1F DUP4 ADD DIV SWAP1 POP SWAP2 SWAP1 POP JUMP JUMPDEST PUSH1 0x0 DUP3 DUP3 SHL SWAP1 POP SWAP3 SWAP2 POP POP JUMP JUMPDEST PUSH1 0x0 PUSH1 0x8 DUP4 MUL PUSH2 0x133C PUSH32 0xFFFFFFFFFFFFFFFFFFFFFFFFFFFFFFFFFFFFFFFFFFFFFFFFFFFFFFFFFFFFFFFF DUP3 PUSH2 0x12FF JUMP JUMPDEST PUSH2 0x1346 DUP7 DUP4 PUSH2 0x12FF JUMP JUMPDEST SWAP6 POP DUP1 NOT DUP5 AND SWAP4 POP DUP1 DUP7 AND DUP5 OR SWAP3 POP POP POP SWAP4 SWAP3 POP POP POP JUMP JUMPDEST PUSH1 0x0 DUP2 SWAP1 POP SWAP2 SWAP1 POP JUMP JUMPDEST PUSH1 0x0 PUSH2 0x1383 PUSH2 0x137E PUSH2 0x1379 DUP5 PUSH2 0x8F8 JUMP JUMPDEST PUSH2 0x135E JUMP JUMPDEST PUSH2 0x8F8 JUMP JUMPDEST SWAP1 POP SWAP2 SWAP1 POP JUMP JUMPDEST PUSH1 0x0 DUP2 SWAP1 POP SWAP2 SWAP1 POP JUMP JUMPDEST PUSH2 0x139D DUP4 PUSH2 0x1368 JUMP JUMPDEST PUSH2 0x13B1 PUSH2 0x13A9 DUP3 PUSH2 0x138A JUMP JUMPDEST DUP5 DUP5 SLOAD PUSH2 0x130C JUMP JUMPDEST DUP3 SSTORE POP POP POP POP JUMP JUMPDEST PUSH1 0x0 SWAP1 JUMP JUMPDEST PUSH2 0x13C6 PUSH2 0x13B9 JUMP JUMPDEST PUSH2 0x13D1 DUP2 DUP5 DUP5 PUSH2 0x1394 JUMP JUMPDEST POP POP POP JUMP JUMPDEST JUMPDEST DUP2 DUP2 LT ISZERO PUSH2 0x13F5 JUMPI PUSH2 0x13EA PUSH1 0x0 DUP3 PUSH2 0x13BE JUMP JUMPDEST PUSH1 0x1 DUP2 ADD SWAP1 POP PUSH2 0x13D7 JUMP JUMPDEST POP POP JUMP JUMPDEST PUSH1 0x1F DUP3 GT ISZERO PUSH2 0x143A JUMPI PUSH2 0x140B DUP2 PUSH2 0x12DA JUMP JUMPDEST PUSH2 0x1414 DUP5 PUSH2 0x12EF JUMP JUMPDEST DUP2 ADD PUSH1 0x20 DUP6 LT ISZERO PUSH2 0x1423 JUMPI DUP2 SWAP1 POP JUMPDEST PUSH2 0x1437 PUSH2 0x142F DUP6 PUSH2 0x12EF JUMP JUMPDEST DUP4 ADD DUP3 PUSH2 0x13D6 JUMP JUMPDEST POP POP JUMPDEST POP POP POP JUMP JUMPDEST PUSH1 0x0 DUP3 DUP3 SHR SWAP1 POP SWAP3 SWAP2 POP POP JUMP JUMPDEST PUSH1 0x0 PUSH2 0x145D PUSH1 0x0 NOT DUP5 PUSH1 0x8 MUL PUSH2 0x143F JUMP JUMPDEST NOT DUP1 DUP4 AND SWAP2 POP POP SWAP3 SWAP2 POP POP JUMP JUMPDEST PUSH1 0x0 PUSH2 0x1476 DUP4 DUP4 PUSH2 0x144C JUMP JUMPDEST SWAP2 POP DUP3 PUSH1 0x2 MUL DUP3 OR SWAP1 POP SWAP3 SWAP2 POP POP JUMP JUMPDEST PUSH2 0x148F DUP3 PUSH2 0x95B JUMP JUMPDEST PUSH8 0xFFFFFFFFFFFFFFFF DUP2 GT ISZERO PUSH2 0x14A8 JUMPI PUSH2 0x14A7 PUSH2 0xD1C JUMP JUMPDEST JUMPDEST PUSH2 0x14B2 DUP3 SLOAD PUSH2 0xFE7 JUMP JUMPDEST PUSH2 0x14BD DUP3 DUP3 DUP6 PUSH2 0x13F9 JUMP JUMPDEST PUSH1 0x0 PUSH1 0x20 SWAP1 POP PUSH1 0x1F DUP4 GT PUSH1 0x1 DUP2 EQ PUSH2 0x14F0 JUMPI PUSH1 0x0 DUP5 ISZERO PUSH2 0x14DE JUMPI DUP3 DUP8 ADD MLOAD SWAP1 POP JUMPDEST PUSH2 0x14E8 DUP6 DUP3 PUSH2 0x146A JUMP JUMPDEST DUP7 SSTORE POP PUSH2 0x1550 JUMP JUMPDEST PUSH1 0x1F NOT DUP5 AND PUSH2 0x14FE DUP7 PUSH2 0x12DA JUMP JUMPDEST PUSH1 0x0 JUMPDEST DUP3 DUP2 LT ISZERO PUSH2 0x1526 JUMPI DUP5 DUP10 ADD MLOAD DUP3 SSTORE PUSH1 0x1 DUP3 ADD SWAP2 POP PUSH1 0x20 DUP6 ADD SWAP5 POP PUSH1 0x20 DUP2 ADD SWAP1 POP PUSH2 0x1501 JUMP JUMPDEST DUP7 DUP4 LT ISZERO PUSH2 0x1543 JUMPI DUP5 DUP10 ADD MLOAD PUSH2 0x153F PUSH1 0x1F DUP10 AND DUP3 PUSH2 0x144C JUMP JUMPDEST DUP4 SSTORE POP JUMPDEST PUSH1 0x1 PUSH1 0x2 DUP9 MUL ADD DUP9 SSTORE POP POP POP JUMPDEST POP POP POP POP POP POP JUMP JUMPDEST PUSH1 0x0 PUSH2 0x1563 DUP3 PUSH2 0x8F8 JUMP JUMPDEST SWAP2 POP PUSH2 0x156E DUP4 PUSH2 0x8F8 JUMP JUMPDEST SWAP3 POP DUP3 DUP3 MUL PUSH2 0x157C DUP2 PUSH2 0x8F8 JUMP JUMPDEST SWAP2 POP DUP3 DUP3 DIV DUP5 EQ DUP4 ISZERO OR PUSH2 0x1593 JUMPI PUSH2 0x1592 PUSH2 0x1263 JUMP JUMPDEST JUMPDEST POP SWAP3 SWAP2 POP POP JUMP JUMPDEST PUSH1 0x0 PUSH2 0x15A5 DUP3 PUSH2 0x8F8 JUMP JUMPDEST SWAP2 POP PUSH2 0x15B0 DUP4 PUSH2 0x8F8 JUMP JUMPDEST SWAP3 POP DUP3 DUP3 ADD SWAP1 POP DUP1 DUP3 GT ISZERO PUSH2 0x15C8 JUMPI PUSH2 0x15C7 PUSH2 0x1263 JUMP JUMPDEST JUMPDEST SWAP3 SWAP2 POP POP JUMP JUMPDEST PUSH1 0x0 PUSH1 0x20 DUP3 ADD SWAP1 POP DUP2 DUP2 SUB PUSH1 0x0 DUP4 ADD MSTORE PUSH2 0x15E8 DUP2 DUP5 PUSH2 0x9B2 JUMP JUMPDEST SWAP1 POP SWAP3 SWAP2 POP POP JUMP INVALID LOG2 PUSH5 0x6970667358 0x22 SLT KECCAK256 0x4D 0xAA 0xA8 0xEE SSTORE CODECOPY COINBASE 0x25 NUMBER 0x4E 0xCD SWAP15 SWAP2 0xCE 0xD1 PUSH7 0xD9FE273D33DF54 XOR CALL PUSH12 0x8843FCA698264736F6C6343 STOP ADDMOD SHR STOP CALLER "},"methodIdentifiers":{"createEvent(string,string[],uint256)":"f36ccc5c","eventCount()":"71be2e4a","events(uint256)":"0b791430","getEvent(uint256)":"6d1884e0","hasVoted(address,uint256)":"42545825","vote(uint256,uint256)":"b384abef"}}}}}