{
  "_format": "hh-sol-artifact-1",
  "contractName": "Voting",
  "sourceName": "contracts/Voting.sol",
  "abi": [
    {
      "anonymous": false,
      "inputs": [
        {
          "indexed": true,
          "internalType": "uint256",
          "name": "eventId",
          "type": "uint256"
        },
        {
          "indexed": false,
          "internalType": "string",
          "name": "title",
          "type": "string"
        }
      ],
      "name": "EventCreated",
      "type": "event"
    },
    {
      "anonymous": false,
      "inputs": [
        {
          "indexed": true,
          "internalType": "uint256",
          "name": "eventId",
          "type": "uint256"
        },
        {
          "indexed": true,
          "internalType": "address",
          "name": "voter",
          "type": "address"
        },
        {
          "indexed": false,
          "internalType": "uint256",
          "name": "candidateIndex",
          "type": "uint256"
        }
      ],
      "name": "VoteCast",
      "type": "event"
    },
    {
      "inputs": [
        {
          "internalType": "string",
          "name": "_title",
          "type": "string"
        },
        {
          "internalType": "string[]",
          "name": "_candidateNames",
          "type": "string[]"
        },
        {
          "internalType": "uint256",
          "name": "_durationInMinutes",
          "type": "uint256"
        },
        {
          "internalType": "bool",
          "name": "_isSecure",
          "type": "bool"
        },
        {
          "internalType": "address[]",
          "name": "_whitelistedVoters",
          "type": "address[]"
        }
      ],
      "name": "createEvent",
      "outputs": [
        {
          "internalType": "uint256",
          "name": "",
          "type": "uint256"
        }
      ],
      "stateMutability": "nonpayable",
      "type": "function"
    },
    {
      "inputs": [],
      "name": "eventCount",
      "outputs": [
        {
          "internalType": "uint256",
          "name": "",
          "type": "uint256"
        }
      ],
      "stateMutability": "view",
      "type": "function"
    },
    {
      "inputs": [
        {
          "internalType": "uint256",
          "name": "",
          "type": "uint256"
        }
      ],
      "name": "events",
      "outputs": [
        {
          "internalType": "string",
          "name": "title",
          "type": "string"
        },
        {
          "internalType": "uint256",
          "name": "endTime",
          "type": "uint256"
        },
        {
          "internalType": "bool",
          "name": "active",
          "type": "bool"
        },
        {
          "internalType": "bool",
          "name": "isSecure",
          "type": "bool"
        }
      ],
      "stateMutability": "view",
      "type": "function"
    },
    {
      "inputs": [
        {
          "internalType": "uint256",
          "name": "_eventId",
          "type": "uint256"
        }
      ],
      "name": "getEvent",
      "outputs": [
        {
          "internalType": "string",
          "name": "title",
          "type": "string"
        },
        {
          "components": [
            {
              "internalType": "string",
              "name": "name",
              "type": "string"
            },
            {
              "internalType": "uint256",
              "name": "voteCount",
              "type": "uint256"
            }
          ],
          "internalType": "struct Voting.Candidate[]",
          "name": "candidates",
          "type": "tuple[]"
        },
        {
          "internalType": "uint256",
          "name": "endTime",
          "type": "uint256"
        },
        {
          "internalType": "bool",
          "name": "active",
          "type": "bool"
        }
      ],
      "stateMutability": "view",
      "type": "function"
    },
    {
      "inputs": [
        {
          "internalType": "address",
          "name": "",
          "type": "address"
        },
        {
          "internalType": "uint256",
          "name": "",
          "type": "uint256"
        }
      ],
      "name": "hasVoted",
      "outputs": [
        {
          "internalType": "bool",
          "name": "",
          "type": "bool"
        }
      ],
      "stateMutability": "view",
      "type": "function"
    },
    {
      "inputs": [
        {
          "internalType": "uint256",
          "name": "_eventId",
          "type": "uint256"
        },
        {
          "internalType": "uint256",
          "name": "_candidateIndex",
          "type": "uint256"
        }
      ],
      "name": "vote",
      "outputs": [],
      "stateMutability": "nonpayable",
      "type": "function"
    }
  ],
  "bytecode": "0x6080604052348015600f57600080fd5b506119628061001f6000396000f3fe608060405234801561001057600080fd5b50600436106100625760003560e01c80630b79143014610067578063425458251461009a5780636d1884e0146100ca57806371be2e4a146100fd578063b384abef1461011b578063c2b7244314610137575b600080fd5b610081600480360381019061007c9190610abd565b610167565b6040516100919493929190610ba4565b60405180910390f35b6100b460048036038101906100af9190610c4e565b610239565b6040516100c19190610c8e565b60405180910390f35b6100e460048036038101906100df9190610abd565b610268565b6040516100f49493929190610e01565b60405180910390f35b610105610485565b6040516101129190610e54565b60405180910390f35b61013560048036038101906101309190610e6f565b61048b565b005b610151600480360381019061014c91906111b9565b61085f565b60405161015e9190610e54565b60405180910390f35b600060205280600052604060002060009150905080600001805461018a906112b7565b80601f01602080910402602001604051908101604052809291908181526020018280546101b6906112b7565b80156102035780601f106101d857610100808354040283529160200191610203565b820191906000526020600020905b8154815290600101906020018083116101e657829003601f168201915b5050505050908060020154908060030160009054906101000a900460ff16908060030160019054906101000a900460ff16905084565b60026020528160005260406000206020528060005260406000206000915091509054906101000a900460ff1681565b60608060008060008511801561028057506001548511155b6102bf576040517f08c379a00000000000000000000000000000000000000000000000000000000081526004016102b690611334565b60405180910390fd5b60008060008781526020019081526020016000209050806000018160010182600201548360030160009054906101000a900460ff16838054610300906112b7565b80601f016020809104026020016040519081016040528092919081815260200182805461032c906112b7565b80156103795780601f1061034e57610100808354040283529160200191610379565b820191906000526020600020905b81548152906001019060200180831161035c57829003601f168201915b5050505050935082805480602002602001604051908101604052809291908181526020016000905b8282101561046f57838290600052602060002090600202016040518060400160405290816000820180546103d4906112b7565b80601f0160208091040260200160405190810160405280929190818152602001828054610400906112b7565b801561044d5780601f106104225761010080835404028352916020019161044d565b820191906000526020600020905b81548152906001019060200180831161043057829003601f168201915b50505050508152602001600182015481525050815260200190600101906103a1565b5050505092509450945094509450509193509193565b60015481565b60008211801561049d57506001548211155b6104dc576040517f08c379a00000000000000000000000000000000000000000000000000000000081526004016104d390611334565b60405180910390fd5b600260003373ffffffffffffffffffffffffffffffffffffffff1673ffffffffffffffffffffffffffffffffffffffff168152602001908152602001600020600083815260200190815260200160002060009054906101000a900460ff161561057a576040517f08c379a0000000000000000000000000000000000000000000000000000000008152600401610571906113a0565b60405180910390fd5b60008083815260200190815260200160002060030160009054906101000a900460ff166105dc576040517f08c379a00000000000000000000000000000000000000000000000000000000081526004016105d39061140c565b60405180910390fd5b600080838152602001908152602001600020600201544210610633576040517f08c379a000000000000000000000000000000000000000000000000000000000815260040161062a90611478565b60405180910390fd5b60008083815260200190815260200160002060010180549050811061068d576040517f08c379a0000000000000000000000000000000000000000000000000000000008152600401610684906114e4565b60405180910390fd5b60008083815260200190815260200160002060030160019054906101000a900460ff16156107555760008083815260200190815260200160002060040160003373ffffffffffffffffffffffffffffffffffffffff1673ffffffffffffffffffffffffffffffffffffffff16815260200190815260200160002060009054906101000a900460ff16610754576040517f08c379a000000000000000000000000000000000000000000000000000000000815260040161074b90611550565b60405180910390fd5b5b600080838152602001908152602001600020600101818154811061077c5761077b611570565b5b9060005260206000209060020201600101600081548092919061079e906115ce565b91905055506001600260003373ffffffffffffffffffffffffffffffffffffffff1673ffffffffffffffffffffffffffffffffffffffff168152602001908152602001600020600084815260200190815260200160002060006101000a81548160ff0219169083151502179055503373ffffffffffffffffffffffffffffffffffffffff16827f2acce567deca3aabf56327adbb4524bd5318936eaefa69e3a5208ffda0cfec09836040516108539190610e54565b60405180910390a35050565b600060016000815480929190610874906115ce565b9190505550600080600060015481526020019081526020016000209050868160000190816108a291906117c2565b50603c856108b09190611894565b426108bb91906118d6565b816002018190555060018160030160006101000a81548160ff021916908315150217905550838160030160016101000a81548160ff02191690831515021790555060005b86518110156109945781600101604051806040016040528089848151811061092a57610929611570565b5b6020026020010151815260200160008152509080600181540180825580915050600190039060005260206000209060020201600090919091909150600082015181600001908161097a91906117c2565b5060208201518160010155505080806001019150506108ff565b508315610a2a5760005b8351811015610a285760018260040160008684815181106109c2576109c1611570565b5b602002602001015173ffffffffffffffffffffffffffffffffffffffff1673ffffffffffffffffffffffffffffffffffffffff16815260200190815260200160002060006101000a81548160ff021916908315150217905550808060010191505061099e565b505b6001547f9ce3d6db707bca4ba0eabed8fba1e2c013a1c0bc1132a764170a7854d198c73d88604051610a5c919061190a565b60405180910390a260015491505095945050505050565b6000604051905090565b600080fd5b600080fd5b6000819050919050565b610a9a81610a87565b8114610aa557600080fd5b50565b600081359050610ab781610a91565b92915050565b600060208284031215610ad357610ad2610a7d565b5b6000610ae184828501610aa8565b91505092915050565b600081519050919050565b600082825260208201905092915050565b60005b83811015610b24578082015181840152602081019050610b09565b60008484015250505050565b6000601f19601f8301169050919050565b6000610b4c82610aea565b610b568185610af5565b9350610b66818560208601610b06565b610b6f81610b30565b840191505092915050565b610b8381610a87565b82525050565b60008115159050919050565b610b9e81610b89565b82525050565b60006080820190508181036000830152610bbe8187610b41565b9050610bcd6020830186610b7a565b610bda6040830185610b95565b610be76060830184610b95565b95945050505050565b600073ffffffffffffffffffffffffffffffffffffffff82169050919050565b6000610c1b82610bf0565b9050919050565b610c2b81610c10565b8114610c3657600080fd5b50565b600081359050610c4881610c22565b92915050565b60008060408385031215610c6557610c64610a7d565b5b6000610c7385828601610c39565b9250506020610c8485828601610aa8565b9150509250929050565b6000602082019050610ca36000830184610b95565b92915050565b600081519050919050565b600082825260208201905092915050565b6000819050602082019050919050565b600082825260208201905092915050565b6000610cf182610aea565b610cfb8185610cd5565b9350610d0b818560208601610b06565b610d1481610b30565b840191505092915050565b610d2881610a87565b82525050565b60006040830160008301518482036000860152610d4b8282610ce6565b9150506020830151610d606020860182610d1f565b508091505092915050565b6000610d778383610d2e565b905092915050565b6000602082019050919050565b6000610d9782610ca9565b610da18185610cb4565b935083602082028501610db385610cc5565b8060005b85811015610def5784840389528151610dd08582610d6b565b9450610ddb83610d7f565b925060208a01995050600181019050610db7565b50829750879550505050505092915050565b60006080820190508181036000830152610e1b8187610b41565b90508181036020830152610e2f8186610d8c565b9050610e3e6040830185610b7a565b610e4b6060830184610b95565b95945050505050565b6000602082019050610e696000830184610b7a565b92915050565b60008060408385031215610e8657610e85610a7d565b5b6000610e9485828601610aa8565b9250506020610ea585828601610aa8565b9150509250929050565b600080fd5b600080fd5b7f4e487b7100000000000000000000000000000000000000000000000000000000600052604160045260246000fd5b610ef182610b30565b810181811067ffffffffffffffff82111715610f1057610f0f610eb9565b5b80604052505050565b6000610f23610a73565b9050610f2f8282610ee8565b919050565b600067ffffffffffffffff821115610f4f57610f4e610eb9565b5b610f5882610b30565b9050602081019050919050565b82818337600083830152505050565b6000610f87610f8284610f34565b610f19565b905082815260208101848484011115610fa357610fa2610eb4565b5b610fae848285610f65565b509392505050565b600082601f830112610fcb57610fca610eaf565b5b8135610fdb848260208601610f74565b91505092915050565b600067ffffffffffffffff821115610fff57610ffe610eb9565b5b602082029050602081019050919050565b600080fd5b600061102861102384610fe4565b610f19565b9050808382526020820190506020840283018581111561104b5761104a611010565b5b835b8181101561109257803567ffffffffffffffff8111156110705761106f610eaf565b5b80860161107d8982610fb6565b8552602085019450505060208101905061104d565b5050509392505050565b600082601f8301126110b1576110b0610eaf565b5b81356110c1848260208601611015565b91505092915050565b6110d381610b89565b81146110de57600080fd5b50565b6000813590506110f0816110ca565b92915050565b600067ffffffffffffffff82111561111157611110610eb9565b5b602082029050602081019050919050565b6000611135611130846110f6565b610f19565b9050808382526020820190506020840283018581111561115857611157611010565b5b835b81811015611181578061116d8882610c39565b84526020840193505060208101905061115a565b5050509392505050565b600082601f8301126111a05761119f610eaf565b5b81356111b0848260208601611122565b91505092915050565b600080600080600060a086880312156111d5576111d4610a7d565b5b600086013567ffffffffffffffff8111156111f3576111f2610a82565b5b6111ff88828901610fb6565b955050602086013567ffffffffffffffff8111156112205761121f610a82565b5b61122c8882890161109c565b945050604061123d88828901610aa8565b935050606061124e888289016110e1565b925050608086013567ffffffffffffffff81111561126f5761126e610a82565b5b61127b8882890161118b565b9150509295509295909350565b7f4e487b7100000000000000000000000000000000000000000000000000000000600052602260045260246000fd5b600060028204905060018216806112cf57607f821691505b6020821081036112e2576112e1611288565b5b50919050565b7f496e76616c6964206576656e7420494400000000000000000000000000000000600082015250565b600061131e601083610af5565b9150611329826112e8565b602082019050919050565b6000602082019050818103600083015261134d81611311565b9050919050565b7f416c726561647920766f74656400000000000000000000000000000000000000600082015250565b600061138a600d83610af5565b915061139582611354565b602082019050919050565b600060208201905081810360008301526113b98161137d565b9050919050565b7f4576656e74206973206e6f742061637469766500000000000000000000000000600082015250565b60006113f6601383610af5565b9150611401826113c0565b602082019050919050565b60006020820190508181036000830152611425816113e9565b9050919050565b7f4576656e742068617320656e6465640000000000000000000000000000000000600082015250565b6000611462600f83610af5565b915061146d8261142c565b602082019050919050565b6000602082019050818103600083015261149181611455565b9050919050565b7f496e76616c69642063616e646964617465000000000000000000000000000000600082015250565b60006114ce601183610af5565b91506114d982611498565b602082019050919050565b600060208201905081810360008301526114fd816114c1565b9050919050565b7f41646472657373206e6f742077686974656c6973746564000000000000000000600082015250565b600061153a601783610af5565b915061154582611504565b602082019050919050565b600060208201905081810360008301526115698161152d565b9050919050565b7f4e487b7100000000000000000000000000000000000000000000000000000000600052603260045260246000fd5b7f4e487b7100000000000000000000000000000000000000000000000000000000600052601160045260246000fd5b60006115d982610a87565b91507fffffffffffffffffffffffffffffffffffffffffffffffffffffffffffffffff820361160b5761160a61159f565b5b600182019050919050565b60008190508160005260206000209050919050565b60006020601f8301049050919050565b600082821b905092915050565b6000600883026116787fffffffffffffffffffffffffffffffffffffffffffffffffffffffffffffffff8261163b565b611682868361163b565b95508019841693508086168417925050509392505050565b6000819050919050565b60006116bf6116ba6116b584610a87565b61169a565b610a87565b9050919050565b6000819050919050565b6116d9836116a4565b6116ed6116e5826116c6565b848454611648565b825550505050565b600090565b6117026116f5565b61170d8184846116d0565b505050565b5b81811015611731576117266000826116fa565b600181019050611713565b5050565b601f8211156117765761174781611616565b6117508461162b565b8101602085101561175f578190505b61177361176b8561162b565b830182611712565b50505b505050565b600082821c905092915050565b60006117996000198460080261177b565b1980831691505092915050565b60006117b28383611788565b9150826002028217905092915050565b6117cb82610aea565b67ffffffffffffffff8111156117e4576117e3610eb9565b5b6117ee82546112b7565b6117f9828285611735565b600060209050601f83116001811461182c576000841561181a578287015190505b61182485826117a6565b86555061188c565b601f19841661183a86611616565b60005b828110156118625784890151825560018201915060208501945060208101905061183d565b8683101561187f578489015161187b601f891682611788565b8355505b6001600288020188555050505b505050505050565b600061189f82610a87565b91506118aa83610a87565b92508282026118b881610a87565b915082820484148315176118cf576118ce61159f565b5b5092915050565b60006118e182610a87565b91506118ec83610a87565b92508282019050808211156119045761190361159f565b5b92915050565b600060208201905081810360008301526119248184610b41565b90509291505056fea2646970667358221220c5ec38bab2b5d0f8d232b3a93875ed34b055ada192a267cf66e08d05259be05664736f6c634300081c0033",
  "linkReferences": {},
  "deployedLinkReferences": {}
}