{
  "_format": "hh-sol-artifact-1",
  "contractName": "Voting",
  "sourceName": "contracts/Voting.sol",
  "abi": [
    {
      "anonymous": false,
      "inputs": [
        {
          "indexed": true,
          "internalType": "uint256",
          "name": "eventId",
          "type": "uint256"
        },
        {
          "indexed": false,
          "internalType": "string",
          "name": "title",
          "type": "string"
        }
      ],
      "name": "EventCreated",
      "type": "event"
    },
    {
      "anonymous": false,
      "inputs": [
        {
          "indexed": true,
          "internalType": "uint256",
          "name": "eventId",
          "type": "uint256"
        },
        {
          "indexed": true,
          "internalType": "address",
          "name": "voter",
          "type": "address"
        },
        {
          "indexed": false,
          "internalType": "uint256",
          "name": "candidateIndex",
          "type": "uint256"
        }
      ],
      "name": "VoteCast",
      "type": "event"
    },
    {
      "inputs": [
        {
          "internalType": "string",
          "name": "_title",
          "type": "string"
        },
        {
          "internalType": "string[]",
          "name": "_candidateNames",
          "type": "string[]"
        },
        {
          "internalType": "uint256",
          "name": "_durationInMinutes",
          "type": "uint256"
        }
      ],
      "name": "createEvent",
      "outputs": [
        {
          "internalType": "uint256",
          "name": "",
          "type": "uint256"
        }
      ],
      "stateMutability": "nonpayable",
      "type": "function"
    },
    {
      "inputs": [],
      "name": "eventCount",
      "outputs": [
        {
          "internalType": "uint256",
          "name": "",
          "type": "uint256"
        }
      ],
      "stateMutability": "view",
      "type": "function"
    },
    {
      "inputs": [
        {
          "internalType": "uint256",
          "name": "",
          "type": "uint256"
        }
      ],
      "name": "events",
      "outputs": [
        {
          "internalType": "string",
          "name": "title",
          "type": "string"
        },
        {
          "internalType": "uint256",
          "name": "endTime",
          "type": "uint256"
        },
        {
          "internalType": "bool",
          "name": "active",
          "type": "bool"
        }
      ],
      "stateMutability": "view",
      "type": "function"
    },
    {
      "inputs": [
        {
          "internalType": "uint256",
          "name": "_eventId",
          "type": "uint256"
        }
      ],
      "name": "getEvent",
      "outputs": [
        {
          "internalType": "string",
          "name": "title",
          "type": "string"
        },
        {
          "components": [
            {
              "internalType": "string",
              "name": "name",
              "type": "string"
            },
            {
              "internalType": "uint256",
              "name": "voteCount",
              "type": "uint256"
            }
          ],
          "internalType": "struct Voting.Candidate[]",
          "name": "candidates",
          "type": "tuple[]"
        },
        {
          "internalType": "uint256",
          "name": "endTime",
          "type": "uint256"
        },
        {
          "internalType": "bool",
          "name": "active",
          "type": "bool"
        }
      ],
      "stateMutability": "view",
      "type": "function"
    },
    {
      "inputs": [
        {
          "internalType": "address",
          "name": "",
          "type": "address"
        },
        {
          "internalType": "uint256",
          "name": "",
          "type": "uint256"
        }
      ],
      "name": "hasVoted",
      "outputs": [
        {
          "internalType": "bool",
          "name": "",
          "type": "bool"
        }
      ],
      "stateMutability": "view",
      "type": "function"
    },
    {
      "inputs": [
        {
          "internalType": "uint256",
          "name": "_eventId",
          "type": "uint256"
        },
        {
          "internalType": "uint256",
          "name": "_candidateIndex",
          "type": "uint256"
        }
      ],
      "name": "vote",
      "outputs": [],
      "stateMutability": "nonpayable",
      "type": "function"
    }
  ],
  "bytecode": "0x6080604052348015600f57600080fd5b506116268061001f6000396000f3fe608060405234801561001057600080fd5b50600436106100625760003560e01c80630b7914301461006757806342545825146100995780636d1884e0146100c957806371be2e4a146100fc578063b384abef1461011a578063f36ccc5c14610136575b600080fd5b610081600480360381019061007c919061092e565b610166565b60405161009093929190610a15565b60405180910390f35b6100b360048036038101906100ae9190610ab1565b610225565b6040516100c09190610af1565b60405180910390f35b6100e360048036038101906100de919061092e565b610254565b6040516100f39493929190610c64565b60405180910390f35b610104610471565b6040516101119190610cb7565b60405180910390f35b610134600480360381019061012f9190610cd2565b610477565b005b610150600480360381019061014b9190610f2d565b610783565b60405161015d9190610cb7565b60405180910390f35b600060205280600052604060002060009150905080600001805461018990610fe7565b80601f01602080910402602001604051908101604052809291908181526020018280546101b590610fe7565b80156102025780601f106101d757610100808354040283529160200191610202565b820191906000526020600020905b8154815290600101906020018083116101e557829003601f168201915b5050505050908060020154908060030160009054906101000a900460ff16905083565b60026020528160005260406000206020528060005260406000206000915091509054906101000a900460ff1681565b60608060008060008511801561026c57506001548511155b6102ab576040517f08c379a00000000000000000000000000000000000000000000000000000000081526004016102a290611064565b60405180910390fd5b60008060008781526020019081526020016000209050806000018160010182600201548360030160009054906101000a900460ff168380546102ec90610fe7565b80601f016020809104026020016040519081016040528092919081815260200182805461031890610fe7565b80156103655780601f1061033a57610100808354040283529160200191610365565b820191906000526020600020905b81548152906001019060200180831161034857829003601f168201915b5050505050935082805480602002602001604051908101604052809291908181526020016000905b8282101561045b57838290600052602060002090600202016040518060400160405290816000820180546103c090610fe7565b80601f01602080910402602001604051908101604052809291908181526020018280546103ec90610fe7565b80156104395780601f1061040e57610100808354040283529160200191610439565b820191906000526020600020905b81548152906001019060200180831161041c57829003601f168201915b505050505081526020016001820154815250508152602001906001019061038d565b5050505092509450945094509450509193509193565b60015481565b60008211801561048957506001548211155b6104c8576040517f08c379a00000000000000000000000000000000000000000000000000000000081526004016104bf90611064565b60405180910390fd5b600260003373ffffffffffffffffffffffffffffffffffffffff1673ffffffffffffffffffffffffffffffffffffffff168152602001908152602001600020600083815260200190815260200160002060009054906101000a900460ff1615610566576040517f08c379a000000000000000000000000000000000000000000000000000000000815260040161055d906110d0565b60405180910390fd5b60008083815260200190815260200160002060030160009054906101000a900460ff166105c8576040517f08c379a00000000000000000000000000000000000000000000000000000000081526004016105bf9061113c565b60405180910390fd5b60008083815260200190815260200160002060020154421061061f576040517f08c379a0000000000000000000000000000000000000000000000000000000008152600401610616906111a8565b60405180910390fd5b600080838152602001908152602001600020600101805490508110610679576040517f08c379a000000000000000000000000000000000000000000000000000000000815260040161067090611214565b60405180910390fd5b60008083815260200190815260200160002060010181815481106106a05761069f611234565b5b906000526020600020906002020160010160008154809291906106c290611292565b91905055506001600260003373ffffffffffffffffffffffffffffffffffffffff1673ffffffffffffffffffffffffffffffffffffffff168152602001908152602001600020600084815260200190815260200160002060006101000a81548160ff0219169083151502179055503373ffffffffffffffffffffffffffffffffffffffff16827f2acce567deca3aabf56327adbb4524bd5318936eaefa69e3a5208ffda0cfec09836040516107779190610cb7565b60405180910390a35050565b60006001600081548092919061079890611292565b9190505550600080600060015481526020019081526020016000209050848160000190816107c69190611486565b50603c836107d49190611558565b426107df919061159a565b816002018190555060018160030160006101000a81548160ff02191690831515021790555060005b845181101561089c5781600101604051806040016040528087848151811061083257610831611234565b5b602002602001015181526020016000815250908060018154018082558091505060019003906000526020600020906002020160009091909190915060008201518160000190816108829190611486565b506020820151816001015550508080600101915050610807565b506001547f9ce3d6db707bca4ba0eabed8fba1e2c013a1c0bc1132a764170a7854d198c73d866040516108cf91906115ce565b60405180910390a26001549150509392505050565b6000604051905090565b600080fd5b600080fd5b6000819050919050565b61090b816108f8565b811461091657600080fd5b50565b60008135905061092881610902565b92915050565b600060208284031215610944576109436108ee565b5b600061095284828501610919565b91505092915050565b600081519050919050565b600082825260208201905092915050565b60005b8381101561099557808201518184015260208101905061097a565b60008484015250505050565b6000601f19601f8301169050919050565b60006109bd8261095b565b6109c78185610966565b93506109d7818560208601610977565b6109e0816109a1565b840191505092915050565b6109f4816108f8565b82525050565b60008115159050919050565b610a0f816109fa565b82525050565b60006060820190508181036000830152610a2f81866109b2565b9050610a3e60208301856109eb565b610a4b6040830184610a06565b949350505050565b600073ffffffffffffffffffffffffffffffffffffffff82169050919050565b6000610a7e82610a53565b9050919050565b610a8e81610a73565b8114610a9957600080fd5b50565b600081359050610aab81610a85565b92915050565b60008060408385031215610ac857610ac76108ee565b5b6000610ad685828601610a9c565b9250506020610ae785828601610919565b9150509250929050565b6000602082019050610b066000830184610a06565b92915050565b600081519050919050565b600082825260208201905092915050565b6000819050602082019050919050565b600082825260208201905092915050565b6000610b548261095b565b610b5e8185610b38565b9350610b6e818560208601610977565b610b77816109a1565b840191505092915050565b610b8b816108f8565b82525050565b60006040830160008301518482036000860152610bae8282610b49565b9150506020830151610bc36020860182610b82565b508091505092915050565b6000610bda8383610b91565b905092915050565b6000602082019050919050565b6000610bfa82610b0c565b610c048185610b17565b935083602082028501610c1685610b28565b8060005b85811015610c525784840389528151610c338582610bce565b9450610c3e83610be2565b925060208a01995050600181019050610c1a565b50829750879550505050505092915050565b60006080820190508181036000830152610c7e81876109b2565b90508181036020830152610c928186610bef565b9050610ca160408301856109eb565b610cae6060830184610a06565b95945050505050565b6000602082019050610ccc60008301846109eb565b92915050565b60008060408385031215610ce957610ce86108ee565b5b6000610cf785828601610919565b9250506020610d0885828601610919565b9150509250929050565b600080fd5b600080fd5b7f4e487b7100000000000000000000000000000000000000000000000000000000600052604160045260246000fd5b610d54826109a1565b810181811067ffffffffffffffff82111715610d7357610d72610d1c565b5b80604052505050565b6000610d866108e4565b9050610d928282610d4b565b919050565b600067ffffffffffffffff821115610db257610db1610d1c565b5b610dbb826109a1565b9050602081019050919050565b82818337600083830152505050565b6000610dea610de584610d97565b610d7c565b905082815260208101848484011115610e0657610e05610d17565b5b610e11848285610dc8565b509392505050565b600082601f830112610e2e57610e2d610d12565b5b8135610e3e848260208601610dd7565b91505092915050565b600067ffffffffffffffff821115610e6257610e61610d1c565b5b602082029050602081019050919050565b600080fd5b6000610e8b610e8684610e47565b610d7c565b90508083825260208201905060208402830185811115610eae57610ead610e73565b5b835b81811015610ef557803567ffffffffffffffff811115610ed357610ed2610d12565b5b808601610ee08982610e19565b85526020850194505050602081019050610eb0565b5050509392505050565b600082601f830112610f1457610f13610d12565b5b8135610f24848260208601610e78565b91505092915050565b600080600060608486031215610f4657610f456108ee565b5b600084013567ffffffffffffffff811115610f6457610f636108f3565b5b610f7086828701610e19565b935050602084013567ffffffffffffffff811115610f9157610f906108f3565b5b610f9d86828701610eff565b9250506040610fae86828701610919565b9150509250925092565b7f4e487b7100000000000000000000000000000000000000000000000000000000600052602260045260246000fd5b60006002820490506001821680610fff57607f821691505b60208210810361101257611011610fb8565b5b50919050565b7f496e76616c6964206576656e7420494400000000000000000000000000000000600082015250565b600061104e601083610966565b915061105982611018565b602082019050919050565b6000602082019050818103600083015261107d81611041565b9050919050565b7f416c726561647920766f74656400000000000000000000000000000000000000600082015250565b60006110ba600d83610966565b91506110c582611084565b602082019050919050565b600060208201905081810360008301526110e9816110ad565b9050919050565b7f4576656e74206973206e6f742061637469766500000000000000000000000000600082015250565b6000611126601383610966565b9150611131826110f0565b602082019050919050565b6000602082019050818103600083015261115581611119565b9050919050565b7f4576656e742068617320656e6465640000000000000000000000000000000000600082015250565b6000611192600f83610966565b915061119d8261115c565b602082019050919050565b600060208201905081810360008301526111c181611185565b9050919050565b7f496e76616c69642063616e646964617465000000000000000000000000000000600082015250565b60006111fe601183610966565b9150611209826111c8565b602082019050919050565b6000602082019050818103600083015261122d816111f1565b9050919050565b7f4e487b7100000000000000000000000000000000000000000000000000000000600052603260045260246000fd5b7f4e487b7100000000000000000000000000000000000000000000000000000000600052601160045260246000fd5b600061129d826108f8565b91507fffffffffffffffffffffffffffffffffffffffffffffffffffffffffffffffff82036112cf576112ce611263565b5b600182019050919050565b60008190508160005260206000209050919050565b60006020601f8301049050919050565b600082821b905092915050565b60006008830261133c7fffffffffffffffffffffffffffffffffffffffffffffffffffffffffffffffff826112ff565b61134686836112ff565b95508019841693508086168417925050509392505050565b6000819050919050565b600061138361137e611379846108f8565b61135e565b6108f8565b9050919050565b6000819050919050565b61139d83611368565b6113b16113a98261138a565b84845461130c565b825550505050565b600090565b6113c66113b9565b6113d1818484611394565b505050565b5b818110156113f5576113ea6000826113be565b6001810190506113d7565b5050565b601f82111561143a5761140b816112da565b611414846112ef565b81016020851015611423578190505b61143761142f856112ef565b8301826113d6565b50505b505050565b600082821c905092915050565b600061145d6000198460080261143f565b1980831691505092915050565b6000611476838361144c565b9150826002028217905092915050565b61148f8261095b565b67ffffffffffffffff8111156114a8576114a7610d1c565b5b6114b28254610fe7565b6114bd8282856113f9565b600060209050601f8311600181146114f057600084156114de578287015190505b6114e8858261146a565b865550611550565b601f1984166114fe866112da565b60005b8281101561152657848901518255600182019150602085019450602081019050611501565b86831015611543578489015161153f601f89168261144c565b8355505b6001600288020188555050505b505050505050565b6000611563826108f8565b915061156e836108f8565b925082820261157c816108f8565b9150828204841483151761159357611592611263565b5b5092915050565b60006115a5826108f8565b91506115b0836108f8565b92508282019050808211156115c8576115c7611263565b5b92915050565b600060208201905081810360008301526115e881846109b2565b90509291505056fea26469706673582212204daaa8ee55394125434ecd9e91ced166d9fe273d33df5418f16b08843fca698264736f6c634300081c0033",
  "linkReferences": {},
  "deployedLinkReferences": {}
}